:020000040800F2
:10000000005000207D3600086F03000871030008CF
:100010007303000875030008770300080000000060
:100020000000000000000000000000002134000873
:100030007903000800000000C134000805350008FD
:10004000C5360008C5360008C5360008C5360008A4
:10005000C53600087B030008C5360008C536000811
:10006000C5360008C5360008C5360008C536000884
:10007000C5360008C53600087D0300088D0300085A
:10008000C5360008C5360008C5360008C536000864
:10009000C5360008C5360008C5360008C536000854
:1000A000C5360008C5360008C5360008C536000844
:1000B000C5360008C53600089D030008C53600088F
:1000C000C5360008C5360008C5360008C536000824
:1000D000C5360008AD030008C5360008C53600085F
:1000E000C5360008C5360008C53600080000000007
:1000F0000000000000000000000000000000000000
:0C01000000000000000000005FF808F1A3
:1001100010B5054C237833B9044B13B10448AFF341
:1001200000800123237010BD80000020000000002B
:10013000E43F000808B5034B1BB103490348AFF384
:10014000008008BD0000000084000020E43F00089B
:10015000034613F8012B002AFBD1181A0138704707
:1001600084B00F4B9A6942F010029A619A6902F0CA
:1001700010020192019A9A6942F020029A619A69EA
:1001800002F020020292029A9A6942F004029A61F5
:100190009B6903F004030393039B04B0704700BF03
:1001A0000010024000B583B00E4B5A6942F00102C4
:1001B0005A615B6903F001030193019B0022052151
:1001C0000E2000F0E9FF0E2001F01AF800220521B0
:1001D0000F2000F0E1FF0F2001F012F803B05DF8EE
:1001E00004FB00BF0010024008B50848084B03603C
:1001F0004FF4E133436000238360C36003610C224A
:1002000042618361C36101F0E3F908BD441A002033
:10021000003801400FB470B5A2B026AC54F8046B9E
:10022000002502957C22294603A803F07FFA019459
:10023000234632467E2102A803F0ACFA02A8FFF75B
:1002400087FF431C22AA02440D2102F8801C0230C1
:1002500022AA13440A2203F8802C22AB184400F887
:10026000805C02A8FFF774FF82B202A9034801F084
:10027000DFF922B0BDE8704004B07047441A002096
:1002800010B5002421460448FFF7C4FF4FF47A70EC
:1002900002F03EFF0134F5E7FC3F000830B591B0B5
:1002A000002409940B940C940194029403940494F4
:1002B0000594012206924FF48033079308940A9222
:1002C00002250D950E930F9406A800F097F90F23C1
:1002D00001930295039404940594214601A800F02B
:1002E000CBFB11B030BD000008B500F04DF9FFF7B1
:1002F000D5FFFFF735FFFFF755FFFFF775FF0D4DF2
:100300002846FFF725FF0C4C82B22946204601F013
:100310008FF90A220949204601F0D0F902F03AFE8D
:10032000074A0021074802F07DFE074B186002F0E3
:1003300053FEFEE700000020441A00209C0000202D
:100340001840000881020008B819002000BF70475B
:100350007047000008B50268034B9A4200D008BD00
:1003600000F024F9FBE700BF000800407047704729
:10037000FEE7FEE7FEE7FEE77047704708B5024874
:1003800000F056FE08BD00BFBC19002008B50248A9
:1003900000F04EFE08BD00BF001A002008B502485C
:1003A00000F052FF08BD00BF841A002008B50248C3
:1003B00001F0A4FA08BD00BF441A002000B583B0C4
:1003C000154B9A6942F001029A619A6902F00102A2
:1003D0000092009ADA6942F08052DA61DB6903F038
:1003E00080530193019B00220F216FF0010000F068
:1003F000D3FE00220521084600F0CEFE052000F0C5
:10040000FFFE064A536823F0E06343F00073536035
:1004100003B05DF804FB00BF001002400000014083
:1004200070B586B00023029303930493059302688A
:10043000314B9A4201D006B070BD044603F55843D3
:100440009A6942F480429A619A6902F48042009269
:10045000009A9A6942F004029A619B6903F00403CE
:100460000193019B4FF40073029302230393032330
:100470000593224E02A9304600F0F8FB4FF480634A
:10048000029300250395049502A9304600F0EEFB87
:100490001B481C4B0360456085608023C360056179
:1004A00045618561C56100F007FDF0B9144B6363D8
:1004B0005C621548154B0360102343600023836082
:1004C0008022C260036143618361C36100F0F4FC78
:1004D00070B90D4B23635C6200220521252000F0DA
:1004E0005BFE252000F08CFEA5E7FFF73FFFDDE770
:1004F000FFF73CFFEDE700BF003801400008014076
:10050000001A002058000240BC190020440002409C
:1005100000B589B0014600221E2000F03DFE1E20DD
:1005200000F06EFE144BDA6942F00402DA61DB6916
:1005300003F004030193019B02A903A800F078FBD8
:1005400000F056FB0D4BA3FB00239B0C013B0C481A
:100550000C4A026040F2E732C2604360002303614C
:10056000836000F069FF18B1012009B05DF804FB59
:10057000034800F054FEF8E70010024083DE1B43FE
:10058000841A00200008004008B5074A136843F0A9
:1005900010031360032000F0EDFD0020FFF7B8FF0B
:1005A000FFF70CFF002008BD00200240034A11683D
:1005B000034B1B780B441360704700BFC41A002024
:1005C0000F000020014B1868704700BFC41A0020BC
:1005D00082B0084B1B68084AA2FB03235B0A00FB9E
:1005E00003F3019300BF019B5A1E0192002BF9D126
:1005F00002B0704714000020D34D6210002800F0B4
:10060000F18170B582B00446036813F0010F2CD05D
:10061000AA4B5B6803F00C03042B1DD0A74B5B684F
:1006200003F00C03082B12D06368B3F5803F41D070
:10063000002B55D103F1804303F504331A6822F4EB
:1006400080321A601A6822F480221A6037E09B4BCD
:100650005B6813F4803FE7D0984B1B6813F4003FAE
:1006600003D06368002B00F0BF81236813F0020FF2
:1006700075D0924B5B6813F00C0F5FD08F4B5B68AB
:1006800003F00C03082B54D02369002B00F0898061
:100690008B4B01221A60FFF795FF0546874B1B68BD
:1006A00013F0020F74D1FFF78DFF401B0228F5D91C
:1006B00003209EE1814A136843F48033136063682A
:1006C00043B3FFF77FFF05467C4B1B6813F4003FE5
:1006D000CBD1FFF777FF401B6428F5D9032088E1D1
:1006E000B3F5A02F09D0754B1A6822F480321A6036
:1006F0001A6822F480221A60E1E703F18043A3F52F
:100700003C331A6842F480221A601A6842F480323C
:100710001A60D4E7FFF756FF0546684B1B6813F4D1
:10072000003FA2D0FFF74EFF401B6428F5D90320FD
:100730005FE1624B5B6813F4803FA5D15F4B1B68A0
:1007400013F0020F03D02369012B40F04F815B4A65
:10075000136823F0F803616943EAC1031360236857
:1007600013F0080F32D0A369002B45D0554B01225E
:100770001A60FFF727FF0546504B5B6A13F0020F24
:1007800021D1FFF71FFF401B0228F5D9032030E1DC
:100790004A4A136823F0F803616943EAC10313600E
:1007A000DDE7474B00221A60FFF70CFF0546434B7D
:1007B0001B6813F0020FD2D0FFF704FF401B022882
:1007C000F5D9032015E10120FFF702FF236813F09C
:1007D000040F00F09780394BDB6913F0805F1DD167
:1007E000364BDA6942F08052DA61DB6903F08053FC
:1007F0000193019B012512E0324B00221A60FFF7A2
:10080000E1FE05462D4B5B6A13F0020FDED0FFF7C9
:10081000D9FE401B0228F5D90320EAE000252A4B27
:100820001B6813F4807F11D0E368012B22D0002BCA
:1008300038D103F1804303F504331A6A22F0010230
:100840001A621A6A22F004021A6218E01E4A136839
:1008500043F480731360FFF7B5FE06461A4B1B681E
:1008600013F4807FE0D1FFF7ADFE801B6428F5D93B
:100870000320BEE0114A136A43F001031362E368E8
:1008800073B3FFF79FFE06460C4B1B6A13F0020F73
:1008900037D1FFF797FE801B41F288339842F3D996
:1008A0000320A6E0052B11D0044B1A6A22F00102A6
:1008B0001A621A6A22F004021A62E0E7001002408B
:1008C0000000424280044242007000404D4B1A6AD0
:1008D00042F004021A621A6A42F001021A62CEE77A
:1008E000FFF770FE0646474B1B6A13F0020F08D055
:1008F000FFF768FE801B41F288339842F3D903204A
:1009000077E0E5B9E369002B72D03E4A526802F005
:100910000C02082A56D0022B17D03B4B00221A603B
:10092000FFF750FE0446374B1B6813F0007F47D09B
:10093000FFF748FE001B0228F5D9032059E0314A91
:10094000D36923F08053D361DCE72F4B00221A6078
:10095000FFF738FE05462B4B1B6813F0007F06D0CF
:10096000FFF730FE401B0228F5D9032041E0236A3F
:10097000B3F5803F1AD023494B6823F47413226ADD
:10098000606A024313434B601F4B01221A60FFF75A
:1009900019FE04461B4B1B6813F0007F0ED1FFF7B6
:1009A00011FE001B0228F5D9032022E0154A5368E6
:1009B00023F40033A1680B435360DCE7002018E008
:1009C000002016E0012B16D00E4B5B6803F480313B
:1009D000226A914211D103F47013626A93420ED1DC
:1009E000002006E001207047012002E0012000E025
:1009F000002002B070BD0120FBE70120F9E70120D3
:100A0000F7E700BF001002406000424286B0164B7C
:100A10000FCB0DF1180C0CE90F0040F20123ADF8DB
:100A20000430124B5B6803F00C02082A02D0104815
:100A300006B07047C3F38342624412F8102C13F4DB
:100A4000803F0CD0094B5B68C3F34043634413F809
:100A5000143C074800FB02F0B0FBF3F0E8E7054860
:100A600000FB02F0E4E700BF3C4000080010024039
:100A700000127A0000093D00002800F0A08070B547
:100A80000D460446524B1B6803F007038B420BD202
:100A90004F4A136823F007030B431360136803F0F6
:100AA00007038B4240F08D80236813F0020F17D0AC
:100AB00013F0040F04D0474A536843F4E0635360D3
:100AC000236813F0080F04D0424A536843F460537C
:100AD0005360404A536823F0F003A1680B4353600E
:100AE000236813F0010F31D06368012B20D0022B53
:100AF00025D0384A126812F0020F64D035494A688E
:100B000022F0030213434B60FFF75CFD0646314BB6
:100B10005B6803F00C036268B3EB820F16D0FFF73B
:100B200051FD801B41F288339842F0D9032045E003
:100B3000284A126812F4003FE0D101203EE0254A25
:100B4000126812F0007FD9D1012037E0204B1B68DA
:100B500003F00703AB420AD91D4A136823F00703C9
:100B60002B431360136803F00703AB422DD12368B6
:100B700013F0040F06D0174A536823F4E063E168CA
:100B80000B435360236813F0080F07D0114A5368D2
:100B900023F46053216943EAC1035360FFF736FF32
:100BA0000C4B5B68C3F303130B4AD35CD8400B4B6D
:100BB00018600B4B1868FFF7ABFC002070BD0120DC
:100BC00070470120FAE70120F8E70120F6E700BFAF
:100BD0000020024000100240504000081400002095
:100BE00010000020014B1868704700BF140000205F
:100BF00008B5FFF7F7FF044B5B68C3F30223034A12
:100C0000D35CD84008BD00BF00100240604000081F
:100C100008B5FFF7E7FF044B5B68C3F3C223034A41
:100C2000D35CD84008BD00BF0010024060400008FF
:100C30000F2303600B4B5A6802F0030242605A68AC
:100C400002F0F00282605A6802F4E062C2605B68FF
:100C5000DB0803F4E0630361034B1B6803F0070345
:100C60000B6070470010024000200240F0B482B0D8
:100C700000252C46A3E07F4FBB4210D007D97E4F02
:100C8000BB420CD007F58037BB4208D013E0A7F574
:100C90008017BB4203D007F57027BB4207D18B6892
:100CA000002B58D0012B51D04261082503E0A7F555
:100CB0008017BB42F3D0FF2E4FD88446FF2E4FD86B
:100CC000A200DCF800300F27974023EA070305FA5B
:100CD00002F21343CCF800304B6813F0805F6DD004
:100CE000664B9A6942F001029A619B6903F0010325
:100CF0000193019BA208971C614B53F8273004F025
:100D00000307BF004FF00F0C0CFA07FC23EA0C0C92
:100D10005C4B98422AD003F58063984200F08A80A9
:100D200003F58063984200F0878003F58063984262
:100D30001AD004231BE0CD68BDE7CD680435BAE7BF
:100D4000CD680835B7E7CD680C35B4E702610825F2
:100D5000B1E70025AFE70425ADE700F1040CADE7EE
:100D6000A4F108029200ACE7032300E00023BB409B
:100D700043EA0C030232424F47F822304B6813F427
:100D8000803F5BD0404A1368334313604B6813F4D1
:100D9000003F59D03C4A5368334353604B6813F4C7
:100DA000801F57D0384A9368334393604B6813F4DD
:100DB000001F55D0344AD3681E43D66001340B68F7
:100DC00033FA04F252D00122A24003EA020632EAC8
:100DD0000303F3D14B68122B3FF64DAF122B3FF6B6
:100DE0006AAF01A757F823F09F0C0008370D0008E1
:100DF000410D0008530D0008B70C0008B70C00089F
:100E0000B70C0008B70C0008B70C0008B70C0008B6
:100E1000B70C0008B70C0008B70C0008B70C0008A6
:100E2000B70C0008B70C0008B70C00083B0D000811
:100E3000470D000801239AE7022398E7124A136836
:100E400023EA06031360A1E70F4A536823EA060367
:100E50005360A3E70C4A936823EA06039360A5E76F
:100E6000094AD36823EA0606D660A7E702B0F0BCB9
:100E7000704700BF00002210000031100010024037
:100E800000000140000801400004014070B4066CFD
:100E9000C56B0124B4406C60046863604368102B28
:100EA00005D0036899600368DA6070BC7047036816
:100EB0009A600368D960F8E760B310B4024601682D
:100EC000154B0B441548A0FB03031B099B0013643F
:100ED000134BD363022382F82130086820F47F503B
:100EE00020F03000536894682343D4682343146986
:100EF00023435469234394692343D469234303431D
:100F00000B6000209063012382F8213082F82000DA
:100F100010BC704701207047F8FFFDBFCDCCCCCC92
:100F20000000024038B5044690F82000012831D076
:100F3000012084F8200094F82100012804D0002327
:100F400084F82030022038BD022084F821000020DF
:100F5000A0632568286820F0010028602046FFF77C
:100F600095FFE36A5BB12268136843F00E031360D8
:100F70002268136843F0010313600020E3E722684E
:100F8000136823F0040313602268136843F00A0314
:100F90001360EDE70220D6E708B590F82130022B68
:100FA00003D004238363012008BD0268136823F083
:100FB0000E0313600268136823F0010313600368D3
:100FC000194A934214D0143293421FD014329342E0
:100FD0001ED0143293421ED0143293421ED01432CB
:100FE000934202D04FF0807203E04FF4801200E091
:100FF00001220E4B5A60012380F82130002380F833
:101000002030436B6BB198470020CDE71022F0E70A
:101010004FF48072EDE74FF48052EAE74FF48032EC
:10102000E7E70020C0E700BF0800024000000240E0
:1010300038B5C36B1A6804682568016C04238B40BB
:10104000134235D015F0040F32D0236813F0200F6F
:1010500003D1236823F0040323600368434A9342C7
:1010600014D01432934218D01432934217D0143251
:10107000934217D01432934217D01432934202D0C5
:101080004FF0806203E04FF4800200E00422384B0E
:101090005A60C36A03B1984738BD4022F7E74FF45E
:1010A0008062F4E74FF48042F1E74FF48022EEE7EC
:1010B00002238B4013423CD015F0020F39D0236835
:1010C00013F0200F06D1236823F00A0323600123C5
:1010D00080F821300368254A934214D01432934299
:1010E0001CD0143293421BD0143293421BD01432C2
:1010F00093421BD01432934202D04FF0007203E0AF
:101100004FF4001200E00222194B5A60002380F8CD
:101110002030836A002BBFD09847BDE72022F3E739
:101120004FF40072F0E74FF40052EDE74FF4003255
:10113000EAE7082303FA01F11142ADD015F0080FD8
:10114000AAD0236823F00E032360026CC16B012335
:1011500003FA02F24A60836380F82130002380F8AA
:101160002030036B002B97D0984795E7080002408A
:1011700000000240074AD36823F4E0631B041B0C01
:10118000000200F4E060034343F0BF6343F4003324
:10119000D360704700ED00E030B4174BDB68C3F359
:1011A0000223C3F10704042C28BF04241D1D062DAF
:1011B00018D9033B4FF0FF3505FA04F421EA040186
:1011C000994005FA03F322EA0303194300280BDBD5
:1011D0000901C9B200F1604000F5614080F80013D8
:1011E00030BC70470023E5E700F00F000901C9B2E9
:1011F000024B1954F4E700BF00ED00E014ED00E0ED
:10120000002807DB00F01F02400901239340024A37
:1012100042F82030704700BF00E100E070470268EC
:10122000D36843F00103D3600268936803F00703B7
:10123000062B03D0136843F00103136000207047AE
:10124000704770477047704710B5044603681A69C5
:1012500012F0020F11D0DA6812F0020F0DD06FF009
:1012600002021A610123037703689B6913F0030FDD
:1012700070D0FFF7E6FF0023237723681A6912F086
:10128000040F12D0DA6812F0040F0ED06FF00402CF
:101290001A610223237723689B6913F4407F5FD090
:1012A0002046FFF7CEFF0023237723681A6912F048
:1012B000080F12D0DA6812F0080F0ED06FF0080293
:1012C0001A61042323772368DB6913F0030F4ED0E0
:1012D0002046FFF7B6FF0023237723681A6912F030
:1012E000100F12D0DA6812F0100F0ED06FF010024B
:1012F0001A61082323772368DB6913F4407F3DD00C
:101300002046FFF79EFF0023237723681A6912F017
:10131000010F03D0DA6812F0010F36D123681A6981
:1013200012F0800F03D0DA6812F0800F34D12368F6
:101330001A6912F0400F03D0DA6812F0400F32D170
:1013400023681A6912F0200F03D0DA6812F0200F18
:1013500030D110BDFFF774FF2046FFF773FF8AE717
:101360002046FFF76DFF2046FFF76CFF9BE7204606
:10137000FFF766FF2046FFF765FFACE72046FFF763
:101380005FFF2046FFF75EFFBDE76FF001021A61C5
:101390002046FEF7DFFFC1E76FF080021A612046AA
:1013A00000F065F8C3E76FF040021A612046FFF7CE
:1013B0004AFFC5E76FF020021A61204600F056F898
:1013C000C7E7000003681B4A90420AD0B0F1804F83
:1013D00007D0A2F59432904203D002F58062904289
:1013E00003D123F070034A681343124A90420AD093
:1013F000B0F1804F07D0A2F59432904203D002F5AD
:101400008062904203D123F44073CA68134323F0EF
:1014100080034A69134303608B68C3620B6883626D
:10142000044B984202D00123436170470B69036368
:10143000F9E700BF002C0140B0B110B5044690F8A8
:101440003D3063B1022384F83D30214651F8040B4E
:10145000FFF7B8FF012384F83D30002010BD80F86D
:101460003C30FFF7DBFEEDE7012070477047704727
:101470000268D36823F0C003D360202380F839309A
:1014800070470268D36823F49073D360026853698D
:1014900023F001035361202380F83A30704790F81D
:1014A0003930DBB2212B01D0022070478368B3F5BD
:1014B000805F17D0036A5A1C02621A7803685A6068
:1014C000C38C9BB2013B9BB2C3844BB90268D36807
:1014D00023F08003D3600268D36843F04003D360F5
:1014E00000207047036A1B880268C3F30803536037
:1014F00003691BB9036A02330362E1E7036A01333C
:101500000362DDE738B504460268136923F44053EB
:10151000C1680B43136183680269134342691A432C
:101520000168CB6823F4B05323F00C031343CB6062
:101530000268536923F4407381690B435361026865
:10154000214B9A421FD0FFF753FB00EB800000EBCA
:10155000800063689B00B0FBF3F01C4DA5FB0032DC
:101560005109642303FB11031B013233A5FB032341
:101570005B0903F0F00202EB011203F00F03216894
:1015800013448B6038BDFFF743FB00EB800000EB9A
:10159000800063689B00B0FBF3F00C4DA5FB0032AC
:1015A0005109642303FB11031B013233A5FB032301
:1015B0005B0903F0F00202EB011203F00F03216854
:1015C00013448B60DEE700BF003801401F85EB51FC
:1015D00058B310B5044690F839300BB3242384F87F
:1015E00039302268D36823F40053D3602046FFF7D4
:1015F00089FF2268136923F49043136122685369B9
:1016000023F02A0353612268D36843F40053D36064
:101610000020E063202384F8393084F83A3010BD8C
:1016200080F83830FEF7FCFED8E701207047000054
:1016300038B590F83930DBB2202B31D1044600297F
:1016400030D0002A30D090F83830012B2ED0012332
:1016500080F8383001628284C2840025C56321236A
:1016600080F83930036B12489862236B1148D862B6
:10167000236B11481863236B5D6320681346021DBA
:10168000206BFFF74FFC23686FF040021A6084F86C
:1016900038502268536943F080035361284600E0C4
:1016A000022038BD0120FCE70120FAE70220F8E71C
:1016B00065170008B1170008A518000830B583B0F9
:1016C000044690F83A00C0B220283CD100293DD011
:1016D000002A3DD094F83830012B3BD0012384F808
:1016E0003830A162A2850025E563222384F83A30D0
:1016F000636B19489862636B1848D862636B18482B
:101700001863636B5D63206813460A46011D606BB6
:10171000FFF708FC019523681A6801925A68019244
:10172000019A84F83850DA6842F48072DA602268EC
:10173000536943F0010353612268536943F0400346
:101740005361284600E0022003B030BD0120FBE7D2
:101750000120F9E70220F7E7BB17000899180008F5
:10176000A518000808B50346406A1B681B6813F0FB
:10177000200F0CD10023C3840268536923F0800337
:1017800053610268D36843F04003D36008BDFEF79D
:10179000DFFDFBE708B50168CA6822F04002CA60B5
:1017A000202280F83920FEF7D3FD002008BD7047C5
:1017B00008B5406AFFF7FBFF08BD08B50346406A5D
:1017C0001B681B6813F0200F13D10023C385026828
:1017D000D36823F48073D3600268536923F0010354
:1017E00053610268536923F040035361202380F85A
:1017F0003A30FEF7ABFD08BD08B590F83A30DBB2E1
:10180000222B46D18368B3F5805F0FD003690BBBF1
:1018100003685A68836A591C81621A70C38D9BB22F
:10182000013B9BB2C385F3B1002008BD826A036906
:1018300043B903685B68C3F308031380836A023308
:101840008362EBE703685B68DBB21380836A013372
:101850008362E3E703685B68826A511C816203F07C
:101860007F031370DAE70268D36823F02003D360A4
:101870000268D36823F48073D3600268536923F04D
:1018800001035361202380F83A30FEF75FFD00200A
:10189000CBE70220C9E7704708B5406AFFF7FBFFB6
:1018A00008BD704710B5446A23685A6994F8393006
:1018B000DBB2212B10D023685A6902F0400294F861
:1018C0003A30DBB2222B11D0E36B43F01003E36319
:1018D0002046FFF7E6FF10BD02F08002002AEAD0A2
:1018E0000023E3842046FFF7C3FDE4E7002AEBD0A2
:1018F0000023E3852046FFF7C4FDE5E710B5044665
:1019000002681368D168526913F00F0005D113F013
:10191000200F02D011F0200F13D128B112F00102D4
:1019200013D111F4907F10D113F0800F02D011F079
:10193000800F69D113F0400F02D011F0400F67D132
:1019400010BD2046FFF758FFFAE713F0010F06D04D
:1019500011F4807F03D0E06B40F00100E06313F0EE
:10196000040F04D01AB1E06B40F00200E06313F002
:10197000020F04D01AB1E06B40F00400E06313F0F2
:10198000080F04D01AB1E26B42F00802E263E26B86
:10199000002AD5D013F0200F02D011F0200F21D152
:1019A00023685B6903F04003E26B12F0080F00D17B
:1019B00023B32046FFF765FD23685A6912F0400FF4
:1019C00018D05A6922F040025A61636B73B1124A0F
:1019D0005A63606BFFF7E0FA0028B1D0606B436B8D
:1019E0009847ADE72046FFF707FFD9E72046FFF706
:1019F00058FFA5E72046FFF754FFA1E72046FFF771
:101A000050FF0023E3639BE72046FFF748FD97E77D
:101A10002046FFF7BFFE93E71D1A000808B5406A8D
:101A20000023C385C384FFF73CFF08BD0F4B1A6832
:101A300042F001021A6059680D4A0A405A601A6859
:101A400022F0847222F480321A601A6822F4802212
:101A50001A605A6822F4FE025A604FF41F029A601C
:101A6000044B4FF000629A60704700BF00100240C4
:101A70000000FFF800ED00E000F1080343604FF0C4
:101A8000FF328260C360036100230360704700235C
:101A90000361704743684B609A688A60516099603F
:101AA0000861036801330360704730B40D68B5F115
:101AB000FF3F11D000F108031C465B681A68AA4278
:101AC000FAD963684B6099608C6061600861036853
:101AD0000133036030BC70470469F2E70369416871
:101AE00082688A60416851605A68824206D000224A
:101AF00002611A68013A1A601868704782685A6071
:101B0000F5E710B5044601F09DFCA26BE36B9A4229
:101B100004D0002401F0B8FC204610BD0124F9E7F0
:101B200010B5044601F08EFCA36B23B9012401F02B
:101B3000ABFC204610BD0024F9E770B504461546FD
:101B4000866B026C5AB903681BB100200136A6638C
:101B500070BD406800F0BEFF00236360F6E76DB91A
:101B6000806801F0D5FD226CA3681344A36062680D
:101B7000934219D32368A3602846E7E7C06801F0C1
:101B8000C7FD226C5142E3689B1AE36022689342CE
:101B900002D263680B44E360022D01D00020D5E738
:101BA00026B1013E0020D1E72846CFE70020CDE74F
:101BB0000346026C6AB110B50846D9681144D96071
:101BC0005C68A14201D31968D960D96801F0A0FD11
:101BD00010BD704738B5054601F034FC95F8454016
:101BE00064B203E000F060FF013C64B2002C08DD49
:101BF0006B6A33B105F1240000F0C2FE0028F3D077
:101C0000F0E7FF2385F8453001F03EFC01F01AFCB7
:101C100095F8444064B203E000F046FF013C64B232
:101C2000002C08DD2B6933B105F1100000F0A8FE8F
:101C30000028F3D0F0E7FF2385F8443001F024FCBE
:101C400038BD000038B5E0B10D46044601F0FAFB9E
:101C50002168E26B236C03FB021060600020A0632C
:101C6000A160013A02FB0313E360FF2384F84430D0
:101C700084F84530EDB9236963B901F005FC012012
:101C800038BD4FF0500383F31188BFF36F8FBFF35C
:101C90004F8FFEE704F1100000F072FE0028ECD038
:101CA000084B4FF080521A60BFF34F8FBFF36F8F16
:101CB000E3E704F11000FFF7DFFE04F12400FFF773
:101CC000DBFEDAE704ED00E038B51D46049C0B4668
:101CD00049B92460E063236401212046FFF7B2FF85
:101CE00084F84C5038BD2260F4E740B94FF05003FF
:101CF00083F31188BFF36F8FBFF34F8FFEE730B5CB
:101D000085B01C46054653B192B189B94FF05003D6
:101D100083F31188BFF36F8FBFF34F8FFEE74FF050
:101D2000500383F31188BFF36F8FBFF34F8FFEE72C
:101D30006AB150230393039B502B13D04FF05003F1
:101D400083F31188BFF36F8FBFF34F8FFEE7002936
:101D5000EFD04FF0500383F31188BFF36F8FBFF3C1
:101D60004F8FFEE7012384F8463000949DF8203021
:101D70002846FFF7A9FF204605B030BDF0B585B075
:101D8000019288B10E461D460446B1B1022D20D104
:101D9000E36B012B1DD04FF0500383F31188BFF389
:101DA0006F8FBFF34F8FFEE74FF0500383F311881F
:101DB000BFF36F8FBFF34F8FFEE7036C002BE5D0AF
:101DC0004FF0500383F31188BFF36F8FBFF34F8F32
:101DD000FEE700F06FFE074658B9019B002B44D088
:101DE0004FF0500383F31188BFF36F8FBFF34F8F12
:101DF000FEE7002739E02A4631462046FFF79DFEE0
:101E0000626A6AB938B13C4B4FF080521A60BFF336
:101E10004F8FBFF36F8F01F037FB012005B0F0BD8E
:101E200004F1240000F0ACFD0028F4D0324B4FF058
:101E300080521A60BFF34F8FBFF36F8FEBE701F053
:101E400023FB0020EAE702A800F0E0FD012719E0EB
:101E5000002384F8443021E0002384F8453023E057
:101E60002046FFF7B7FE00F06BFC01F0EBFAA26B27
:101E7000E36B9A42BFD3022DBDD0019B002BDED075
:101E8000002FE0D001F000FB00F0C0FB01F0DAFA17
:101E900094F844305BB2B3F1FF3FD9D094F84530A9
:101EA0005BB2B3F1FF3FD7D001F0EEFA01A902A86F
:101EB00000F0B8FDC8B92046FFF723FE0028CFD0B8
:101EC000019904F1100000F027FD2046FFF782FE83
:101ED00000F036FC0028C8D1074B4FF080521A6042
:101EE000BFF34F8FBFF36F8FBFE72046FFF772FE40
:101EF00000F026FC002091E704ED00E02DE9F84316
:101F000090B1894690461F460446B1B1022F20D1B8
:101F1000E36B012B1DD04FF0500383F31188BFF307
:101F20006F8FBFF34F8FFEE74FF0500383F311889D
:101F3000BFF36F8FBFF34F8FFEE7036C002BE5D02D
:101F40004FF0500383F31188BFF36F8FBFF34F8FB0
:101F5000FEE701F065FBEFF311864FF0500383F3CA
:101F60001188BFF36F8FBFF34F8FA26BE36B9A4261
:101F700006D3022F04D0002086F31188BDE8F88331
:101F800094F845506DB23A4649462046FFF7D5FDD4
:101F9000B5F1FF3F05D06B1C5BB284F845300120E2
:101FA000EAE7636A0BB90120E6E704F1240000F0D8
:101FB000E7FC30B1B8F1000F05D00120C8F80000EF
:101FC000DAE70120D8E70120D6E70000F0B585B0B8
:101FD000019290B10E460446C1B100F06BFD074678
:101FE00000BB019B002B5CD04FF0500383F31188A2
:101FF000BFF36F8FBFF34F8FFEE74FF0500383F3B4
:102000001188BFF36F8FBFF34F8FFEE7036C002B78
:10201000E3D04FF0500383F31188BFF36F8FBFF30A
:102020004F8FFEE700273CE031462046FFF7C0FD1A
:10203000013DA563236923B901F026FA012005B00B
:10204000F0BD04F1100000F09BFC0028F4D0354BEB
:102050004FF080521A60BFF34F8FBFF36F8FEBE7E3
:1020600001F012FA0020EAE702A800F0CFFC0127F5
:1020700021E0002384F8443029E0002384F845302F
:102080002BE02046FFF7A6FD00F05AFB09E02046B2
:10209000FFF7A0FD00F054FB2046FFF741FD0028AC
:1020A0003DD101F0CFF9A56B002DBDD1019B002BD7
:1020B000D6D0002FD8D001F0E7F900F0A7FA01F050
:1020C000C1F994F844305BB2B3F1FF3FD1D094F83A
:1020D00045305BB2B3F1FF3FCFD001F0D5F901A994
:1020E00002A800F09FFC0028D1D12046FFF718FD80
:1020F0000028C6D0019904F1240000F00DFC204610
:10210000FFF768FD00F01CFB0028CAD1054B4FF01B
:1021100080521A60BFF34F8FBFF36F8FC1E700206B
:102120008DE700BF04ED00E0002300E00133072B42
:102130000BD8064A52F83320002AF7D1034A42F856
:10214000331002EBC303586070477047C81A002071
:1021500070B504460D46164601F074F994F8443003
:102160005BB2B3F1FF3F0DD094F845305BB2B3F1F1
:10217000FF3F0BD001F088F9A36B5BB12046FFF75E
:1021800029FD70BD002384F84430EDE7002384F876
:102190004530EFE73246294604F1240000F0D4FB35
:1021A000ECE70000084B1B681B6823B9074B4FF096
:1021B000FF321A607047044B1B68DB68DB685A68A3
:1021C000024B1A60704700BFAC000020540500208D
:1021D0002DE9F04780460D4617469946089EDDF8E2
:1021E00024A00A9C9200A521206B01F09FFA236B8A
:1021F00007F18042013A03EB820727F0070700222C
:102200000F2A07D8A95CA31883F83410AB5C0BB174
:102210000132F5E7002384F84330372E00D9372602
:10222000E662E66400252565201DFFF730FC04F119
:102230001800FFF72CFC2461C6F13806A661646221
:10224000656584F858504A464146384601F0D6F84C
:102250002060BAF1000F01D0CAF80040BDE8F08755
:1022600038B50024372C08D804EB840293000E48BC
:102270001844FFF701FC0134F4E70C4D2846FFF742
:10228000FBFB0B4C2046FFF7F7FB0A48FFF7F4FB7C
:102290000948FFF7F1FB0948FFF7EEFB084B1D600B
:1022A000084B1C6038BD00BFB40000202C05002086
:1022B000400500205C0500208805002074050020F2
:1022C000AC000020B000002010B5044601F0BAF8C0
:1022D000214A136801331360204B1B685BB1204B0C
:1022E0001B686BB91D4B1B68DA6AE36A9A4207D810
:1022F0001A4B1C6004E0194B1C601368012B27D09B
:10230000184A1368013313606364E06A164B1B6854
:10231000984201D9144B186000EB8000211D134B2B
:1023200003EB8000FFF7B6FB01F0AEF80C4B1B6827
:102330006BB10A4B1B68DA6AE36A9A4207D20C4B0C
:102340004FF080521A60BFF34F8FBFF36F8F10BDF5
:10235000FFF786FFD4E700BF14050020A800002087
:10236000700500202405002028050020B40000206E
:1023700004ED00E010B5044690F8593063B1012B2C
:1023800011D0022B0ED04FF0500383F31188BFF30E
:102390006F8FBFF34F8FFEE7006B00F0C7FF204643
:1023A00000F0C4FF10BD00F0C1FFFBE70F4B1B683E
:1023B000D3B110B501F046F80D4BDB68DC68201D89
:1023C000FFF78CFB0B4A1368013B1360074A136845
:1023D000013B136001F058F82046FFF7CBFF034B99
:1023E0001B68002BE6D110BD704700BF1805002008
:1023F000880500201405002008B5FFF7D7FF064B1D
:102400001B68012BF9D9054B4FF080521A60BFF3BE
:102410004F8FBFF36F8FF0E7B400002004ED00E0B2
:1024200070B504460D46174B1E68174B18680430EC
:10243000FFF754FBB4F1FF3F0DD03444124B1B683F
:102440005C60A64210D9114B18680F4B1968043113
:10245000FFF72BFB70BD002DEFD00B4B196804313B
:102460000B48FFF717FBF5E70A4B1868064B19688E
:102470000431FFF71AFB084B1B68A342EAD9064B4D
:102480001C60E7E79C050020A8000020B0000020A9
:1024900074050020AC0000205405002070B586B003
:1024A0000B9D0C9C75B1B4B15C260496049E5C2E09
:1024B0001AD04FF0500383F31188BFF36F8FBFF32F
:1024C0004F8FFEE74FF0500383F31188BFF36F8FF8
:1024D000BFF34F8FFEE74FF0500383F31188BFF334
:1024E0006F8FBFF34F8FFEE72563022584F85950A5
:1024F00000250395029405AD01950A9D0095FFF70F
:1025000067FE2046FFF7E0FE059806B070BD2DE996
:10251000F04385B00746884614461E46900000F0FA
:102520008DFE00B381465C2000F088FE0546B0B108
:10253000C0F83090E5B1002385F859300393029537
:102540000D9B01930C9B009333462246414638462F
:10255000FFF73EFE2846FFF7B7FE012005E048469C
:1025600000F0E4FEE6E74FF0FF3005B0BDE8F08391
:102570004FF0FF30F9E7000010B588B00024059453
:10258000069407AA06A905A800F0E4FD059B02939E
:10259000069B019300942346079A17491748FFF7B3
:1025A0007DFF48B100F04AFB0346012B06D0B3F192
:1025B000FF3F18D008B010BD0023F6E74FF05003DE
:1025C00083F31188BFF36F8FBFF34F8F0C4B4FF026
:1025D000FF321A600B4B01221A600B4B00221A606B
:1025E00000F0C2FFE6E74FF0500383F31188BFF31A
:1025F0006F8FBFF34F8FFEE768400008F923000894
:1026000054050020700500209C050020024A136834
:1026100001331360704700BF20050020014B18688C
:10262000704700BF9C050020F8B53A4B1B68002B93
:1026300065D1394B1D6801351D60C5B9374B1B6825
:102640001B6843B14FF0500383F31188BFF36F8FC2
:10265000BFF34F8FFEE7314A1168314B18681060A5
:102660001960304A136801331360FFF79BFD2E4B4E
:102670001B68AB420CD900242C4B1B68DB6A03EBB4
:1026800083039A002A4B9B58012B3DD901243BE040
:10269000002416E0244B4FF0FF321A60ECE7224A88
:1026A0001360E9E703EB83039A003946204810449E
:1026B000FFF7F0F9F26A1D4B1B68DB6A9A4200D300
:1026C0000124164B1B681B68002BE3D0134B1B68BF
:1026D000DB68DE6873689D42E1D3371D3846FFF73B
:1026E000FDF9B36A1BB106F11800FFF7F7F9F36AB9
:1026F000104A12689342D5D90E4A1360D2E70E4AA7
:1027000013680133136000240C4B1B6803B10124D0
:102710002046F8BD200500209C050020AC000020CC
:10272000B00000205805002054050020A80000201B
:10273000B4000020280500201C050020A005002072
:1027400038B5344B1B6843B94FF0500383F31188FD
:10275000BFF36F8FBFF34F8FFEE700F073FE2D4B7B
:102760001A68013A1A601B68002B4DD12A4B1B686E
:102770000BB9002449E00024284B1B681BB3274BEE
:10278000DB68DC6804F11800FFF7A8F9251D28466E
:10279000FFF7A4F9E06A224B1B68984201D9204B4D
:1027A000186000EB800029461E4B03EB8000FFF70A
:1027B00071F9E26A1C4B1B68DB6A9A42DCD31B4B43
:1027C00001221A60D8E70CB1FFF7ECFC184B1C682B
:1027D00074B9164B1C68C4B1164B4FF080521A6086
:1027E000BFF34F8FBFF36F8F01240EE0013C07D082
:1027F000FFF71AFF0028F9D00C4B01221A60F5E709
:102800000B4B00221A60E4E7002400F03DFE204656
:1028100038BD00BF20050020140500205C05002005
:1028200028050020B4000020A8000020A0050020FA
:102830001C05002004ED00E010B5A8B104460F4BC4
:102840001B6843B14FF0500383F31188BFF36F8FC0
:10285000BFF34F8FFEE7FFF7D9FE00212046FFF7B9
:10286000DFFDFFF76DFF38B9054B4FF080521A605E
:10287000BFF34F8FBFF36F8F10BD00BF2005002047
:1028800004ED00E01F4B1B681BB11F4B01221A60B7
:1028900070471D4B00221A601C4B1B6803EB830121
:1028A0008A001B498A585AB90BB1013BF6E74FF031
:1028B000500383F31188BFF36F8FBFF34F8FFEE791
:1028C00010B403EB830082000A44506840685060F3
:1028D00003EB8304A20014460832114488420CD052
:1028E00003EB830291000A4A0A445268D168094AFC
:1028F0001160064A136010BC70474068044A2244C5
:102900005060EDE720050020A005002028050020EC
:10291000B4000020A800002058B110B50C46094BA7
:1029200019681831FFF7C1F801212046FFF778FD3B
:1029300010BD4FF0500383F31188BFF36F8FBFF3C7
:102940004F8FFEE7A800002038B570B10C46154641
:102950000A4B19681831FFF79DF80DB14FF0FF349D
:1029600029462046FFF75CFD38BD4FF0500383F346
:102970001188BFF36F8FBFF34F8FFEE7A8000020D1
:1029800038B5C368DC6824B304F118052846FFF79E
:10299000A5F8184B1B682BBB251D2846FFF79EF892
:1029A000E06A154B1B68984201D9134B186000EB85
:1029B00080002946114B03EB8000FFF76BF8E26AB9
:1029C0000F4B1B68DB6A9A4211D901200D4B18602E
:1029D0000EE04FF0500383F31188BFF36F8FBFF306
:1029E0004F8FFEE729460848FFF754F8E7E7002035
:1029F00038BD00BF2005002028050020B4000020BD
:102A0000A8000020A00500205C050020034B1B68E7
:102A10000360034B1B684360704700BF58050020EC
:102A20009C050020F8B5C8B10C460546F9B100F088
:102A300009FD1B4B19686B68C81A2268B2F1FF3F89
:102A400026D02F68174E3668B74201D08B4224D962
:102A5000824215D80023236001241AE04FF050036E
:102A600083F31188BFF36F8FBFF34F8FFEE74FF0F3
:102A7000500383F31188BFF36F8FBFF34F8FFEE7CF
:102A80005B1A134423602846FFF7C0FF002400E0D0
:102A9000002400F0F9FC2046F8BD0124F9E700BF4E
:102AA0009C05002058050020014B01221A60704748
:102AB000A0050020054B1B6833B1054B1B680BB10B
:102AC00000207047022070470120704770050020E9
:102AD0002005002000283BD038B504461E4B1B685B
:102AE000834208D04FF0500383F31188BFF36F8FF8
:102AF000BFF34F8FFEE7036D43B94FF0500383F3ED
:102B00001188BFF36F8FBFF34F8FFEE7013B036563
:102B1000C16AC26C91421DD00BB1002038BD051DA9
:102B20002846FEF7DBFFE06CE062C0F13803A361EA
:102B30000A4B1B68984201D9084B186000EB8000D3
:102B40002946074B03EB8000FEF7A4FF0120E5E7D1
:102B5000002070470020E1E7A800002028050020A1
:102B6000B4000020064B1A681368B3FA83F35B09BC
:102B7000036013B9D368186870470020704700BF1E
:102B8000A405002008B54160006191420CD8D21A1A
:102B900083699A4201D3012008BD011D094B1868C1
:102BA000FEF783FF0020F7E79A4201D2994206D24E
:102BB000011D054B1868FEF778FF0020ECE70120A7
:102BC000EAE700BFA8050020A405002030B583B0C7
:102BD00000F038FC114B1B681BB100F055FC03B032
:102BE00030BD0F4D2846FEF747FF0E4C2046FEF73E
:102BF00043FF0D4B1D600D4B1C60002300930C4BDD
:102C00000C4A10210A20FFF770F8044B18600028C6
:102C1000E3D00949FFF788FADFE700BFC8060020C4
:102C20004C06002060060020A4050020A805002016
:102C300078060020AC0500207040000810B588B070
:102C4000FFF7C4FF124B1B68CBB100240594069418
:102C500007AA06A905A800F089FA059B0293069B1E
:102C60000193022300932346079A0A490A48FFF773
:102C700015FC0A4A106010B1012008B010BD4FF0D9
:102C8000500383F31188BFF36F8FBFF34F8FFEE7BD
:102C9000C8060020784000087D2F0008CC060020E0
:102CA000C0B110B584B014461A46034616480068F1
:102CB00038B300910194029305291CDCFFF7FAFE5A
:102CC000022810D000231A4669460F480068FFF713
:102CD00055F814E04FF0500383F31188BFF36F8F62
:102CE000BFF34F8FFEE70023069A69460648006847
:102CF000FFF744F803E000236946FFF7FFF804B04C
:102D000010BD0020FBE700BFC806002070B582B0F0
:102D10001A4B1B681A6852B3DB681E68DC68251DF5
:102D20002846FEF7DBFE636A20469847E369012BDD
:102D3000EED1A36933449E4207D2636024612946E1
:102D40000E4B1868FEF7B1FEE2E7002100910B463A
:102D500032462046FFF7A4FF0028D9D14FF0500398
:102D600083F31188BFF36F8FBFF34F8FFEE7044AE1
:102D7000106802490860136002B070BDA40500200D
:102D8000A805002038B50546FFF748FC0446074B68
:102D90001B68834205D800232B60044B1C6020462F
:102DA00038BDFFF7B3FF01232B60F6E77406002060
:102DB00070B582B005460E46144B1B68DB68DC68B4
:102DC000201DFEF78BFEE369012B04D0636A2046C9
:102DD000984702B070BDA1692B463246294420466F
:102DE000FFF7D0FE0028F1D0002100910B462A46C3
:102DF0002046FFF755FF0028E8D14FF0500383F33A
:102E00001188BFF36F8FBFF34F8FFEE7A40500203B
:102E100070B582B006460C46FFF7F8FB01A8FFF735
:102E2000B1FF019B1BBB05460CB9B04218D22CB1B7
:102E3000114B1B681C68B4FA84F464092246711BA8
:102E40000E4B1868FFF784F9FFF77AFC88B90C4B32
:102E50004FF080521A60BFF34F8FBFF36F8F08E0BF
:102E6000FFF76EFC29463046FFF7A2FF01E0FFF7AF
:102E700067FC02B070BD00BFA8050020C806002096
:102E800004ED00E010B588B006E007990698059BB0
:102E90009847049B002B0BDA002204A9364B1868D4
:102EA000FFF794F8002865D0049B002BF1DAECE7DB
:102EB000069C636913B1201DFEF710FE03A8FFF7FF
:102EC00061FF049B092BE7D801A252F823F000BF51
:102ED000F92E0008F92E0008F92E0008992E000896
:102EE0003F2F0008652F0008F92E0008F92E000872
:102EF000992E00083F2F0008059BA169024619443E
:102F00002046FFF73FFE0028C6D0636A2046984758
:102F1000E369012BC0D1A269002100910B460598FD
:102F200002442046FFF7BCFE0028B5D14FF0500305
:102F300083F31188BFF36F8FBFF34F8FFEE70599BF
:102F4000A16131B10346024601442046FFF71AFE53
:102F5000A2E74FF0500383F31188BFF36F8FBFF3E5
:102F60004F8FFEE794F82C30002B95D1204600F0CF
:102F7000DDF991E708B010BDC806002000B583B0A8
:102F800001A8FFF7EFFD0199FFF742FFFFF77AFF76
:102F9000F6E70000EFF3058393B9EFF3108393B9DD
:102FA0000C4B1868022804D080B90A4B01221A6021
:102FB0007047EFF31183002BF6D06FF005007047D8
:102FC0006FF0050070476FF0050070474FF0FF305D
:102FD000704700BF2C09002008B5EFF30583B3B993
:102FE000EFF31083B3B90E4B1B68022B08D0012BF3
:102FF00013D10B4B02221A60FFF7BEFA002008BD66
:10300000EFF31182002AF2D06FF00500F7E76FF0BE
:103010000500F4E76FF00500F1E74FF0FF30EEE751
:103020002C090020F0B587B000240494EFF3058448
:10303000002C43D1EFF31083002B3FD1334B1B689F
:10304000022B21D0002839D000238DF8173062B32D
:103050001568EDB1936903B918235C1E372C51D85C
:10306000546814F0010F4FD15669A6B14FEA960C7F
:1030700094682CB1D7685B2F02D9176907B106BBDA
:1030800064B14FF0FF3416E0EFF31183B3B9D9E721
:103090000DF11705DEE74FF0800CE9E7D46894B92D
:1030A00014699CB14FF0FF3405E0002418234FF061
:1030B000800C0DF11705012C0AD0ACB1049807B0B3
:1030C000F0BD0124F7E74FF0FF34F4E70024F2E706
:1030D000146992680292019400930B466246294655
:1030E000FFF7DCF90490E9E704AA019200930B468C
:1030F0001FFA8CF22946FFF70AFA0128DED00023D6
:103100000493DBE70020DAE70020D8E72C09002051
:1031100008B5EFF30583A3B9EFF31083A3B90C4B04
:103120001B68022B02D040B9002008BDEFF31183C9
:10313000002BF8D06FF00500F7E7FFF77DFB0020CC
:10314000F3E76FF00500F0E76FF00500EDE700BF73
:103150002C090020034B0360034B0B60802313609A
:10316000704700BFD0080020D0060020034B03604A
:10317000034B0B604FF4807313607047300D0020D9
:1031800030090020124A12F0070F1ED0D11D21F085
:103190000701C1F5406313440A460E48026000214E
:1031A00041601344083B23F007030B480360596058
:1031B0001960991A51601360084B1960084B196027
:1031C000084B4FF000421A6070474FF44063E4E749
:1031D000900D00209C1900208C0D002098190020D3
:1031E000941900209019002010B4124B1A461B6845
:1031F0008342FBD351685418844209D04168441873
:10320000A3420AD00360904200D0106010BC704707
:103210004068014451601046F0E7074C2468A3421F
:1032200006D05B681944416013681B680360EAE7D5
:103230000460E8E79C1900208C0D002070B504465E
:10324000FFF7E4F9344B1B68A3B1344B1B681C42F5
:103250004AD134B1083414F0070F02D024F0070427
:103260000834002C42D02E4B1B68A3424DD32D4B6B
:103270001D6804E0FFF786FFE7E72B4615466A68FE
:10328000A24202D22A68002AF7D1234A1268AA422F
:103290003DD01E6808362A681A606B681B1B102B0D
:1032A00010D9281910F0070F08D04FF0500383F3FE
:1032B0001188BFF36F8FBFF34F8FFEE743606C60E1
:1032C000FFF792FF6A6816490B689B1A0B60164954
:1032D00009688B4201D214490B60104B1B681343E1
:1032E0006B6000232B6002E0002600E00026FFF761
:1032F00027FA16F0070F0CD04FF0500383F3118814
:10330000BFF36F8FBFF34F8FFEE70026EFE7002676
:10331000EDE7304670BD00BF8C0D002090190020F5
:10332000941900209C1900209819002080B338B50A
:103330000446A0F1080550F8043C164A12681342EE
:1033400008D14FF0500383F31188BFF36F8FBFF3A1
:103350004F8FFEE750F8081C41B14FF0500383F344
:103360001188BFF36F8FBFF34F8FFEE723EA02038D
:1033700040F8043CFFF74AF954F8041C064A136865
:103380000B4413602846FFF72FFFFFF7D9F938BD2C
:10339000704700BF901900209419002082B00023CC
:1033A00001930D4B1B68B3F1FF3F08D04FF0500362
:1033B00083F31188BFF36F8FBFF34F8FFEE74FF09A
:1033C000500383F31188BFF36F8FBFF34F8F019BBF
:1033D000002BFCD002B0704718000020064800689F
:1033E000006880F3088862B661B6BFF34F8FBFF301
:1033F0006F8F00DF00BF000008ED00E04FF080732A
:1034000040F8043C21F0010140F8081C034B40F84F
:103410000C3C40F8202C4038704700BF9D3300081A
:10342000074B19680868B0E8F00F80F30988BFF30C
:103430006F8F4FF0000080F311884EF00D0E704733
:10344000A80000204FF0500383F31188BFF36F8F63
:10345000BFF34F8F0A4A136801331360012B00D06A
:103460007047084B1B6813F0FF0FF9D04FF0500363
:1034700083F31188BFF36F8FBFF34F8FFEE700BF59
:103480001800002004ED00E0094B1B6843B94FF021
:10349000500383F31188BFF36F8FBFF34F8FFEE7A5
:1034A000013B034A13600BB983F31188704700BFD7
:1034B00018000020000000000000000000000000D4
:1034C000EFF30980BFF36F8F0D4B1A6820E9F00FFF
:1034D00010602DE908404FF0500080F31188FFF78D
:1034E000D1F94FF0000080F31188BDE80840196859
:1034F0000868B0E8F00F80F30988BFF36F8F70475A
:10350000A800002008B54FF0500383F31188BFF3E3
:103510006F8FBFF34F8FFFF787F818B1034B4FF052
:1035200080521A60002383F3118808BD04ED00E087
:10353000084A0023136008490B60084B1B680849C0
:10354000A1FB03139B09013B06490B600723136092
:10355000704700BF10E000E018E000E01400002019
:10356000D34D621014E000E010B582B0274B1A78FA
:10357000D2B20192FF221A701B78DBB28DF80330B1
:103580009DF8033003F05003214A1370214B0722AA
:103590001A609DF8033013F0800F0AD01D4A13689B
:1035A000013B13609DF803305B00DBB28DF8033004
:1035B000EFE7184B1B68032B08D04FF0500383F341
:1035C0001188BFF36F8FBFF34F8FFEE71B0203F429
:1035D000E063104A1360019BDBB20C4A13700E4B80
:1035E0001A6842F470021A601A6842F070421A6057
:1035F000FFF79EFF0024094B1C60FFF7EFFEFFF76B
:1036000041F9FFF7CBFE204602B010BD00E400E018
:10361000A4190020A819002020ED00E018000020C7
:10362000EFF305830F2B0FD9104A9B5CDBB2104AD6
:1036300012789A4208D94FF0500383F31188BFF3F0
:103640006F8FBFF34F8FFEE70A4B1B6803F4E063F5
:10365000094A1268934208D94FF0500383F3118846
:10366000BFF36F8FBFF34F8FFEE77047F0E300E0CB
:10367000A41900200CED00E0A8190020002103E0AF
:103680000B4B5B58435004310A480B4B42189A428B
:10369000F6D30A4A02E0002342F8043B084B9A4260
:1036A000F9D3FEF7C3F900F00FF8FCF71DFE7047E1
:1036B000BC400008000000208000002080000020A6
:1036C000181B0020FEE7000070B500260C4D0D4CC5
:1036D000641BA410A64209D100F084FC00260A4D08
:1036E0000A4C641BA410A64205D170BD55F8043BDA
:1036F00098470136EEE755F8043B98470136F2E764
:10370000B4400008B4400008B4400008B8400008C5
:103710000A44914200F1FF3300D1704710B511F80F
:10372000014B914203F8014FF9D110BD0346024409
:10373000934200D1704703F8011BF9E730B5141E1E
:1037400005469BB0184605DA8B234FF0FF302B60FF
:103750001BB030BD4FF40273ADF80C300CBF2346E4
:1037600004F1FF33029305934FF6FF730246009175
:103770000491ADF80E3069461E9B284600F074F89F
:10378000431CBCBF8B232B60002CE1D00022009B8C
:103790001A70DDE707B5009313460A460146034851
:1037A0000068FFF7CBFF03B05DF804FB1C000020AE
:1037B0002DE9F0478E6882469E420C4690461F4691
:1037C00038D88A8912F4906F32D02568096901339C
:1037D000A5EB010965694B4405EB450505EBD5757E
:1037E0006D109D4238BF1D46530531D5294600F066
:1037F00045FB064650B90C234FF0FF30CAF80030A5
:10380000A38943F04003A381BDE8F0874A462169BC
:10381000FFF77EFFA38923F4906343F08003A38125
:1038200026614E4426603E466561A5EB0905A5600C
:10383000BE4200D93E4632464146206800F0B8FA02
:10384000A36822689B1B32440020A3602260DBE750
:103850002A4600F06DFB06460028E1D1504621695A
:1038600000F0C0FAC7E700002DE9F04F98468B89B9
:1038700007461B060D4614469DB00ED50B6963B96D
:10388000402100F0FBFA2860286120B90C233B603E
:103890004FF0FF30D1E040236B61002309932023D8
:1038A0008DF8293030234FF00109CDF80C80DFF876
:1038B000A4818DF82A3023469A4613F8012B0AB1C9
:1038C000252AF9D1BAEB040B0BD05B4622462946D8
:1038D0003846FFF76DFF013000F0AA80099A5A447C
:1038E00009929AF80030002B00F0A28000234FF0DC
:1038F000FF32CDE905230AF1010A049307938DF8FD
:1039000053301A935446052214F8011B514800F015
:1039100041FA049AD8B9D00644BF20238DF8533019
:10392000110744BF2B238DF853309AF800302A2B0F
:1039300015D0544600204FF00A0C079A214611F882
:10394000013B303B092B4ED9B0B1079214E0A0EBFC
:10395000080309FA03F31343A2460493D2E7039B37
:10396000191D1B680391002BBBBF5B4242F0020292
:1039700007930793B8BF049223782E2B0CD163785A
:103980002A2B35D1039B02341A1D1B680392002B8E
:10399000B8BF4FF0FF330593DFF8C8A003225046AD
:1039A000217800F0F7F940B14023A0EB0A0003FAB8
:1039B00000F0049B01340343049314F8011B062216
:1039C00025488DF8281000F0E5F9002838D0234B61
:1039D0001BBB039B073323F0070308330393099BA7
:1039E0003344099367E70C4601200CFB0232A5E73C
:1039F00000234FF00A0C194601340593204610F8B5
:103A0000012B303A092A03D9002BC5D00591C3E711
:103A1000044601230CFB0121F0E703AB00932A4687
:103A200038460F4B04A9AFF30080421C0646D6D19E
:103A3000AB895B063FF52CAF09981DB0BDE8F08F50
:103A400003AB00932A463846054B04A900F07CF8E6
:103A5000EBE700BF804000088A400008000000003B
:103A6000B1370008864000082DE9F0471646994610
:103A70008A680B6907469342B8BF1346336091F8D2
:103A800043200C46DDF820800AB1013333602368FF
:103A9000990642BF336802333360256815F0060586
:103AA00006D104F1190AE36832689B1AAB4228DC9C
:103AB00094F84320131E226818BF012392062DD4C8
:103AC0004946384604F14302C047013020D02368FC
:103AD000E56803F00603042B18BF002532684FF099
:103AE0000006A36808BFAD1A226908BF25EAE5757C
:103AF0009342C4BF9B1AED181A34B5421AD1002064
:103B000008E00123524649463846C047013003D1F8
:103B10004FF0FF30BDE8F0870135C4E73020E118F1
:103B200081F843005A1C94F845102244023382F86D
:103B30004310C5E70123224649463846C0470130B5
:103B4000E6D00136D9E700002DE9FF470C46277E75
:103B50009146782F80469A460C9904F1430207D883
:103B6000622F0AD8002F00F0D980582F00F0A480CF
:103B700004F1420684F842703AE0A7F16303152B82
:103B8000F6D801A050F823F0E13B0008F53B00080F
:103B9000713B0008713B0008713B0008713B000855
:103BA000F53B0008713B0008713B0008713B0008C1
:103BB000713B0008033D0008253C0008E53C000877
:103BC000713B0008713B0008253D0008713B00086F
:103BD000253C0008713B0008713B0008ED3C0008E3
:103BE0000B6804F142061A1D1B680A6084F8423013
:103BF0000123A4E0256808682E0600F104030AD515
:103C000005680B60002D03DA2D236D4284F84330E4
:103C10000A235E4819E015F0400F05680B6018BFD5
:103C20002DB2EFE70B682568181D0860280601D53E
:103C30001D6802E06906FBD51D886F2F0CBF0823A5
:103C40000A235248002184F843106668002EA8BF5A
:103C50002168A660A4BF21F0040121600DB9002EE7
:103C60004DD01646B5FBF3F103FB1157C75D06F8BF
:103C7000017D2F46BB420D46F4D9082B0BD123689A
:103C8000DF0708D5236961689942DEBF302306F853
:103C9000013C06F1FF36921B22614B46214640460D
:103CA000CDF800A003AAFFF7DFFE01304CD14FF0A2
:103CB000FF3004B0BDE8F087344884F845700E68E2
:103CC000236856F8045B1F060E6014D5D90744BF5D
:103CD00043F0200323601DB9236823F020032360F1
:103CE0001023AFE7236843F020032360782328489C
:103CF00084F84530E3E75E0648BFADB2E6E7164616
:103D0000BBE70B6826681D1D60690D6035061B68E2
:103D100001D5186002E07106FBD518800023164615
:103D20002361BAE70B681A1D0A601E68002130463D
:103D3000626800F02FF808B1801B6060636823613F
:103D4000002384F84330A8E73246494640462369B9
:103D5000D0470130ABD023689B0713D4E068039BA6
:103D60009842B8BF1846A4E7012332464946404668
:103D7000D04701309BD00135E36803995B1AAB4211
:103D8000F2DCEBE7002504F11906F5E791400008A5
:103D9000A2400008034610B5C9B202449342184637
:103DA00001D1002003E0047801338C42F6D110BD2C
:103DB000884210B501EB020402D98442234607D899
:103DC000431EA14208D011F8012B03F8012FF8E798
:103DD000014602448A4200D110BD13F8014D02F899
:103DE000014DF7E738B50546002943D051F8043CAA
:103DF0000C1F002BB8BFE41800F0D0F81E4A13685F
:103E0000104633B9636014602846BDE8384000F0BE
:103E1000CBB8A3420AD921686218934201BF1A683D
:103E20005B685218226063600460EDE71A465B68C5
:103E30000BB1A342FAD911685018A0420BD12068E7
:103E40000144501883421160DED118685B68014458
:103E500011605360D8E702D90C232B60D4E72068A7
:103E600021188B4201BF19685B68091821606360E3
:103E70005460C9E738BD00BFAC190020F8B5CD1CAF
:103E800025F0030508350C2D38BF0C25002D0646FE
:103E900001DBA94203D90C2333600020F8BD00F0F8
:103EA0007DF821490A6814469CB9204F3B6823B924
:103EB0002146304600F062F838602946304600F06E
:103EC0005DF8431C23D10C233046336000F06CF8BE
:103ED000E3E723685B1B17D40B2B03D923601C4437
:103EE000256004E06368A2420CBF0B60536030465B
:103EF00000F05AF804F10B00231D20F00700C21A4D
:103F0000CCD01B1AA350C9E722466468CCE7C41C76
:103F100024F00304A042E3D0211A304600F02EF82A
:103F20000130DDD1CFE700BFAC190020B01900206F
:103F3000F8B5074614460E4621B91146BDE8F840CB
:103F4000FFF79CBF22B9FFF74DFF25462846F8BD75
:103F500000F030F8A0420FD221463846FFF78EFF1E
:103F600005460028F2D031462246FFF7D1FB314604
:103F70003846FFF737FFE9E73546E7E738B500236E
:103F8000054D044608462B6000F01EF8431C02D184
:103F90002B6803B1236038BD081B0020014800F0E6
:103FA00011B800BF101B0020014800F00CB800BF82
:103FB000101B002051F8043C181F002BBCBF0B58ED
:103FC000C018704770477047044A05491368002BB2
:103FD00008BF0B461844106018467047B4190020FB
:103FE000181B0020F8B500BFF8BC08BC9E467047FF
:0C3FF000F8B500BFF8BC08BC9E46704746
:103FFC006C6976656420256420736563000000009D
:10400C0064656661756C745461736B000C400008D8
:10401C000000000000000000000000000000000094
:10402C00000200001800000000000000000000006A
:10403C0002030405060708090A0B0C0D0E0F1010DD
:10404C00000000000000000000000000010203045A
:10405C0006070809000000000102030449444C450E
:10406C0000000000546D725100000000546D72206D
:10407C0053766300232D302B2000686C4C00656652
:10408C00674546470030313233343536373839419D
:10409C0042434445460030313233343536373839B3
:0840AC006162636465660000B7
:0440B40035010008CA
:0440B80011010008EA
:1040BC0068656C6C6F20776F726C64210D0A00015F
:1040CC00100000000024F400AAAAAAAA20000020D4
:1040DC0000000000000000000000000000000000D4
:1040EC0000000000000000000000000000000000C4
:1040FC0000000000000000000000000000000000B4
:10410C0000000000000000000000000000000000A3
:10411C000000000000000000000000000000000093
:10412C000000000000000000000000000000000083
:040000050800367D3C
:00000001FF
