:020000040800F2
:10000000005000207D2B00082F020008310200085C
:100010003302000835020008370200080000000023
:10002000000000000000000000000000212900087E
:100030003902000800000000C1290008052A000854
:10004000C52B0008C52B0008C52B0008C52B0008D0
:10005000C52B0008C52B0008C52B0008C52B0008C0
:10006000C52B0008C52B0008C52B0008C52B0008B0
:10007000C52B0008C52B0008C52B0008C52B0008A0
:10008000C52B0008C52B0008C52B0008C52B000890
:10009000C52B0008C52B0008C52B0008C52B000880
:1000A000C52B0008C52B0008C52B0008C52B000870
:1000B0003D020008C52B0008C52B0008C52B000811
:1000C000C52B0008C52B0008C52B0008C52B000850
:1000D000C52B0008C52B0008C52B0008C52B000840
:1000E000C52B0008C52B0008C52B00080000000028
:1000F0000000000000000000000000000000000000
:0C01000000000000000000005FF808F1A3
:1001100010B5054C237833B9044B13B10448AFF341
:1001200000800123237010BD780000200000000033
:10013000C42D000808B5034B1BB103490348AFF3B6
:10014000008008BD000000007C000020C42D0008D5
:1001500010B586B000240494124B9A6942F0100244
:100160009A619B6903F010030193019B4FF40053C4
:100170000293012303930323059302A90A4800F085
:1001800043FC4FF47A7002F043FA002C04F00102B1
:10019000B8BF5242D2B24FF40051034800F044FDC0
:1001A0000134EEE7001002400010014010B590B09D
:1001B0002422002107A802F039FD002401940294B2
:1001C0000394049405940223069301230A931023B5
:1001D0000B9306A800F0F0F80F2301930294039408
:1001E00004940594214601A800F024FB10B010BD32
:1001F00008B500F0A7F8FFF7D9FF054A0021054828
:1002000002F08EF9044B186001F06CFC002008BD70
:10021000E82D000851010008FC21002008B5036802
:10022000B3F1804F00D008BD00F09EF8FBE77047A7
:10023000FEE7FEE7FEE7FEE77047000008B502486C
:1002400000F061FD08BD00BF4022002000B583B072
:10025000114B9A6942F001029A619A6902F0010217
:100260000092009ADA6942F08052DA61DB6903F0A9
:1002700080530193019B00220F216FF0010000F0D9
:10028000EBFC064A536823F0E06343F000735360CD
:1002900003B05DF804FB00BF001002400000014005
:1002A0000268094B9A4200D0704782B003F50333CD
:1002B000DA6942F00202DA61DB6903F002030193BA
:1002C000019B02B0704700BF0004004000B589B038
:1002D000014600221C2000F0BFFC1C2000F0F0FCB6
:1002E000154BDA6942F00102DA61DB6903F00103C0
:1002F0000193019B02A903A800F068FB00F056FBE4
:100300000E4BA3FB00239B0C013B0D484FF080429A
:10031000026040F2E732C260436000230361836001
:1003200000F0E8FD18B1012009B05DF804FB0448B5
:1003300000F0D4FCF8E700BF0010024083DE1B434E
:100340004022002008B5074A136843F010031360E9
:10035000032000F06FFC0020FFF7B8FFFFF776FFE7
:10036000002008BD00200240034A1168034B1B789F
:100370000B441360704700BF802200200000002063
:10038000014B1868704700BF8022002082B0084BE4
:100390001B68084AA2FB03235B0A00FB03F30193DB
:1003A00000BF019B5A1E0192002BF9D102B0704789
:1003B00008000020D34D6210002800F0F18170B5D4
:1003C00082B00446036813F0010F2CD0AA4B5B687F
:1003D00003F00C03042B1DD0A74B5B6803F00C0348
:1003E000082B12D06368B3F5803F41D0002B55D164
:1003F00003F1804303F504331A6822F480321A6053
:100400001A6822F480221A6037E09B4B5B6813F471
:10041000803FE7D0984B1B6813F4003F03D063681C
:10042000002B00F0BF81236813F0020F75D0924BB0
:100430005B6813F00C0F5FD08F4B5B6803F00C030D
:10044000082B54D02369002B00F089808B4B0122AC
:100450001A60FFF795FF0546874B1B6813F0020FE4
:1004600074D1FFF78DFF401B0228F5D903209EE1D0
:10047000814A136843F480331360636843B3FFF722
:100480007FFF05467C4B1B6813F4003FCBD1FFF781
:1004900077FF401B6428F5D9032088E1B3F5A02F2E
:1004A00009D0754B1A6822F480321A601A6822F457
:1004B00080221A60E1E703F18043A3F53C331A6818
:1004C00042F480221A601A6842F480321A60D4E73B
:1004D000FFF756FF0546684B1B6813F4003FA2D098
:1004E000FFF74EFF401B6428F5D903205FE1624B04
:1004F0005B6813F4803FA5D15F4B1B6813F0020FBC
:1005000003D02369012B40F04F815B4A136823F02D
:10051000F803616943EAC1031360236813F0080F0D
:1005200032D0A369002B45D0554B01221A60FFF74A
:1005300027FF0546504B5B6A13F0020F21D1FFF7EE
:100540001FFF401B0228F5D9032030E14A4A1368F7
:1005500023F0F803616943EAC1031360DDE7474B09
:1005600000221A60FFF70CFF0546434B1B6813F08F
:10057000020FD2D0FFF704FF401B0228F5D9032059
:1005800015E10120FFF702FF236813F0040F00F0CC
:100590009780394BDB6913F0805F1DD1364BDA69E8
:1005A00042F08052DA61DB6903F080530193019BD2
:1005B000012512E0324B00221A60FFF7E1FE0546EA
:1005C0002D4B5B6A13F0020FDED0FFF7D9FE401B04
:1005D0000228F5D90320EAE000252A4B1B6813F412
:1005E000807F11D0E368012B22D0002B38D103F19A
:1005F000804303F504331A6A22F001021A621A6A70
:1006000022F004021A6218E01E4A136843F4807351
:100610001360FFF7B5FE06461A4B1B6813F4807F84
:10062000E0D1FFF7ADFE801B6428F5D90320BEE0C2
:10063000114A136A43F001031362E36873B3FFF7CF
:100640009FFE06460C4B1B6A13F0020F37D1FFF7D3
:1006500097FE801B41F288339842F3D90320A6E02D
:10066000052B11D0044B1A6A22F001021A621A6A91
:1006700022F004021A62E0E7001002400000424249
:1006800080044242007000404D4B1A6A42F004025E
:100690001A621A6A42F001021A62CEE7FFF770FE90
:1006A0000646474B1B6A13F0020F08D0FFF768FE9F
:1006B000801B41F288339842F3D9032077E0E5B9F3
:1006C000E369002B72D03E4A526802F00C02082AFD
:1006D00056D0022B17D03B4B00221A60FFF750FE7A
:1006E0000446374B1B6813F0007F47D0FFF748FEE6
:1006F000001B0228F5D9032059E0314AD36923F0C1
:100700008053D361DCE72F4B00221A60FFF738FEDD
:1007100005462B4B1B6813F0007F06D0FFF730FE19
:10072000401B0228F5D9032041E0236AB3F5803F3E
:100730001AD023494B6823F47413226A606A024377
:1007400013434B601F4B01221A60FFF719FE04464A
:100750001B4B1B6813F0007F0ED1FFF711FE001B2F
:100760000228F5D9032022E0154A536823F4003308
:10077000A1680B435360DCE7002018E0002016E07E
:10078000012B16D00E4B5B6803F48031226A914234
:1007900011D103F47013626A93420ED1002006E077
:1007A00001207047012002E0012000E0002002B09B
:1007B00070BD0120FBE70120F9E70120F7E700BF4A
:1007C000001002406000424286B0164B0FCB0DF184
:1007D000180C0CE90F0040F20123ADF80430124B65
:1007E0005B6803F00C02082A02D0104806B070477C
:1007F000C3F38342624412F8102C13F4803F0CD0F0
:10080000094B5B68C3F34043634413F8143C074847
:1008100000FB02F0B0FBF3F0E8E7054800FB02F054
:10082000E4E700BF0C2E00080010024000127A001E
:1008300000093D00002800F0A08070B50D46044678
:10084000524B1B6803F007038B420BD24F4A1368CD
:1008500023F007030B431360136803F007038B4275
:1008600040F08D80236813F0020F17D013F0040FAF
:1008700004D0474A536843F4E0635360236813F09D
:10088000080F04D0424A536843F460535360404A0F
:10089000536823F0F003A1680B435360236813F0FF
:1008A000010F31D06368012B20D0022B25D0384AAC
:1008B000126812F0020F64D035494A6822F0030230
:1008C00013434B60FFF75CFD0646314B5B6803F05A
:1008D0000C036268B3EB820F16D0FFF751FD801B4B
:1008E00041F288339842F0D9032045E0284A126843
:1008F00012F4003FE0D101203EE0254A126812F0D8
:10090000007FD9D1012037E0204B1B6803F007039B
:10091000AB420AD91D4A136823F007032B43136027
:10092000136803F00703AB422DD1236813F0040FC3
:1009300006D0174A536823F4E063E1680B43536021
:10094000236813F0080F07D0114A536823F460534B
:10095000216943EAC1035360FFF736FF0C4B5B6824
:10096000C3F303130B4AD35CD8400B4B18600B4BFB
:100970001868FFF7ABFC002070BD01207047012014
:10098000FAE70120F8E70120F6E700BF0020024067
:1009900000100240202E0008080000200400002063
:1009A000014B1868704700BF0800002008B5FFF72A
:1009B000F7FF044B5B68C3F30223034AD35CD840C0
:1009C00008BD00BF00100240302E00080F23036056
:1009D0000B4B5A6802F0030242605A6802F0F002C0
:1009E00082605A6802F4E062C2605B68DB0803F46C
:1009F000E0630361034B1B6803F007030B60704760
:100A00000010024000200240F0B482B000252C46C5
:100A1000A3E07F4FBB4210D007D97E4FBB420CD022
:100A200007F58037BB4208D013E0A7F58017BB421B
:100A300003D007F57027BB4207D18B68002B58D035
:100A4000012B51D04261082503E0A7F58017BB4276
:100A5000F3D0FF2E4FD88446FF2E4FD8A200DCF8EB
:100A600000300F27974023EA070305FA02F21343E9
:100A7000CCF800304B6813F0805F6DD0664B9A69FC
:100A800042F001029A619B6903F001030193019B0B
:100A9000A208971C614B53F8273004F00307BF00EE
:100AA0004FF00F0C0CFA07FC23EA0C0C5C4B98423D
:100AB0002AD003F58063984200F08A8003F58063B2
:100AC000984200F0878003F5806398421AD004238F
:100AD0001BE0CD68BDE7CD680435BAE7CD680835C1
:100AE000B7E7CD680C35B4E702610825B1E700250A
:100AF000AFE70425ADE700F1040CADE7A4F108026F
:100B00009200ACE7032300E00023BB4043EA0C0360
:100B10000232424F47F822304B6813F4803F5BD0DB
:100B2000404A1368334313604B6813F4003F59D0B5
:100B30003C4A5368334353604B6813F4801F57D0CB
:100B4000384A9368334393604B6813F4001F55D0C1
:100B5000344AD3681E43D66001340B6833FA04F27A
:100B600052D00122A24003EA020632EA0303F3D183
:100B70004B68122B3FF64DAF122B3FF66AAF01A721
:100B800057F823F03B0A0008D30A0008DD0A0008E2
:100B9000EF0A0008530A0008530A0008530A000825
:100BA000530A0008530A0008530A0008530A0008B1
:100BB000530A0008530A0008530A0008530A0008A1
:100BC000530A0008530A0008D70A0008E30A00087D
:100BD00001239AE7022398E7124A136823EA0603DF
:100BE0001360A1E70F4A536823EA06035360A3E7A3
:100BF0000C4A936823EA06039360A5E7094AD36881
:100C000023EA0606D660A7E702B0F0BC704700BF33
:100C100000002210000031100010024000000140CE
:100C200000080140000401400AB101617047090455
:100C300001617047074AD36823F4E0631B041B0C6F
:100C4000000200F4E060034343F0BF6343F4003369
:100C5000D360704700ED00E030B4174BDB68C3F39E
:100C60000223C3F10704042C28BF04241D1D062DF4
:100C700018D9033B4FF0FF3505FA04F421EA0401CB
:100C8000994005FA03F322EA0303194300280BDB1A
:100C90000901C9B200F1604000F5614080F800131D
:100CA00030BC70470023E5E700F00F000901C9B22E
:100CB000024B1954F4E700BF00ED00E014ED00E032
:100CC000002807DB00F01F02400901239340024A7D
:100CD00042F82030704700BF00E100E00268D368AE
:100CE00043F00103D3600268936803F00703062B07
:100CF00003D0136843F0010313600020704770476E
:100D000070477047704710B5044603681A6912F0BF
:100D1000020F11D0DA6812F0020F0DD06FF002024C
:100D20001A610123037703689B6913F0030F70D0E6
:100D3000FFF7E6FF0023237723681A6912F0040FF8
:100D400012D0DA6812F0040F0ED06FF004021A61AC
:100D50000223237723689B6913F4407F5FD02046EA
:100D6000FFF7CEFF0023237723681A6912F0080FDC
:100D700012D0DA6812F0080F0ED06FF008021A6174
:100D8000042323772368DB6913F0030F4ED020463A
:100D9000FFF7B6FF0023237723681A6912F0100FBC
:100DA00012D0DA6812F0100F0ED06FF010021A6134
:100DB000082323772368DB6913F4407F3DD0204666
:100DC000FFF79EFF0023237723681A6912F0010FB3
:100DD00003D0DA6812F0010F36D123681A6912F0D5
:100DE000800F03D0DA6812F0800F34D123681A69BB
:100DF00012F0400F03D0DA6812F0400F32D12368AE
:100E00001A6912F0200F03D0DA6812F0200F30D1E7
:100E100010BDFFF774FF2046FFF773FF8AE72046F7
:100E2000FFF76DFF2046FFF76CFF9BE72046FFF7BB
:100E300066FF2046FFF765FFACE72046FFF75FFF40
:100E40002046FFF75EFFBDE76FF001021A61204602
:100E5000FFF7E4F9C1E76FF080021A61204600F065
:100E600064F8C3E76FF040021A612046FFF74AFFBB
:100E7000C5E76FF020021A61204600F055F8C7E779
:100E800003681B4A90420AD0B0F1804F07D0A2F508
:100E90009432904203D002F58062904203D123F055
:100EA00070034A681343124A90420AD0B0F1804F4F
:100EB00007D0A2F59432904203D002F580629042AE
:100EC00003D123F44073CA68134323F080034A69B3
:100ED000134303608B68C3620B688362044B9842C0
:100EE00002D00123436170470B690363F9E700BF38
:100EF000002C0140B0B110B5044690F83D3063B10C
:100F0000022384F83D30214651F8040BFFF7B8FF67
:100F1000012384F83D30002010BD80F83C30FFF7FD
:100F2000BFF9EDE701207047704770470F4B1A6813
:100F300042F001021A6059680D4A0A405A601A6864
:100F400022F0847222F480321A601A6822F480221D
:100F50001A605A6822F4FE025A604FF41F029A6027
:100F6000044B4FF000629A60704700BF00100240CF
:100F70000000FFF800ED00E000F1080343604FF0CF
:100F8000FF328260C3600361002303607047002367
:100F90000361704743684B609A688A60516099604A
:100FA0000861036801330360704730B40D68B5F120
:100FB000FF3F11D000F108031C465B681A68AA4283
:100FC000FAD963684B6099608C606160086103685E
:100FD0000133036030BC70470469F2E7036941687C
:100FE00082688A60416851605A68824206D0002255
:100FF00002611A68013A1A601868704782685A607C
:10100000F5E710B5044601F09DFCA26BE36B9A4234
:1010100004D0002401F0B8FC204610BD0124F9E7FB
:1010200010B5044601F08EFCA36B23B9012401F036
:10103000ABFC204610BD0024F9E770B50446154608
:10104000866B026C5AB903681BB100200136A66397
:1010500070BD406801F004F800236360F6E76DB9E5
:10106000806801F0D5FD226CA3681344A360626818
:10107000934219D32368A3602846E7E7C06801F0CC
:10108000C7FD226C5142E3689B1AE36022689342D9
:1010900002D263680B44E360022D01D00020D5E743
:1010A00026B1013E0020D1E72846CFE70020CDE75A
:1010B0000346026C6AB110B50846D9681144D9607C
:1010C0005C68A14201D31968D960D96801F0A0FD1C
:1010D00010BD704738B5054601F034FC95F8454021
:1010E00064B203E000F0A6FF013C64B2002C08DD0E
:1010F0006B6A33B105F1240000F008FF0028F3D03B
:10110000F0E7FF2385F8453001F03EFC01F01AFCC2
:1011100095F8444064B203E000F08CFF013C64B2F7
:10112000002C08DD2B6933B105F1100000F0EEFE54
:101130000028F3D0F0E7FF2385F8443001F024FCC9
:1011400038BD000038B5E0B10D46044601F0FAFBA9
:101150002168E26B236C03FB021060600020A06337
:10116000A160013A02FB0313E360FF2384F84430DB
:1011700084F84530EDB9236963B901F005FC01201D
:1011800038BD4FF0500383F31188BFF36F8FBFF367
:101190004F8FFEE704F1100000F0B8FE0028ECD0FD
:1011A000084B4FF080521A60BFF34F8FBFF36F8F21
:1011B000E3E704F11000FFF7DFFE04F12400FFF77E
:1011C000DBFEDAE704ED00E038B51D46049C0B4673
:1011D00049B92460E063236401212046FFF7B2FF90
:1011E00084F84C5038BD2260F4E740B94FF050030A
:1011F00083F31188BFF36F8FBFF34F8FFEE730B5D6
:1012000085B01C46054653B192B189B94FF05003E1
:1012100083F31188BFF36F8FBFF34F8FFEE74FF05B
:10122000500383F31188BFF36F8FBFF34F8FFEE737
:101230006AB150230393039B502B13D04FF05003FC
:1012400083F31188BFF36F8FBFF34F8FFEE7002941
:10125000EFD04FF0500383F31188BFF36F8FBFF3CC
:101260004F8FFEE7012384F8463000949DF820302C
:101270002846FFF7A9FF204605B030BDF0B585B080
:10128000019288B10E461D460446B1B1022D20D10F
:10129000E36B012B1DD04FF0500383F31188BFF394
:1012A0006F8FBFF34F8FFEE74FF0500383F311882A
:1012B000BFF36F8FBFF34F8FFEE7036C002BE5D0BA
:1012C0004FF0500383F31188BFF36F8FBFF34F8F3D
:1012D000FEE700F0B5FE074658B9019B002B44D04D
:1012E0004FF0500383F31188BFF36F8FBFF34F8F1D
:1012F000FEE7002739E02A4631462046FFF79DFEEB
:10130000626A6AB938B13C4B4FF080521A60BFF341
:101310004F8FBFF36F8F01F037FB012005B0F0BD99
:1013200004F1240000F0F2FD0028F4D0324B4FF01D
:1013300080521A60BFF34F8FBFF36F8FEBE701F05E
:1013400023FB0020EAE702A800F026FE012719E0AF
:10135000002384F8443021E0002384F8453023E062
:101360002046FFF7B7FE00F0ABFC01F0EBFAA26BF2
:10137000E36B9A42BFD3022DBDD0019B002BDED080
:10138000002FE0D001F000FB00F000FC01F0DAFAE1
:1013900094F844305BB2B3F1FF3FD9D094F84530B4
:1013A0005BB2B3F1FF3FD7D001F0EEFA01A902A87A
:1013B00000F0FEFDC8B92046FFF723FE0028CFD07D
:1013C000019904F1100000F06DFD2046FFF782FE48
:1013D00000F076FC0028C8D1074B4FF080521A600D
:1013E000BFF34F8FBFF36F8FBFE72046FFF772FE4B
:1013F00000F066FC002091E704ED00E02DE9F843E1
:1014000090B1894690461F460446B1B1022F20D1C3
:10141000E36B012B1DD04FF0500383F31188BFF312
:101420006F8FBFF34F8FFEE74FF0500383F31188A8
:10143000BFF36F8FBFF34F8FFEE7036C002BE5D038
:101440004FF0500383F31188BFF36F8FBFF34F8FBB
:10145000FEE701F065FBEFF311864FF0500383F3D5
:101460001188BFF36F8FBFF34F8FA26BE36B9A426C
:1014700006D3022F04D0002086F31188BDE8F8833C
:1014800094F845506DB23A4649462046FFF7D5FDDF
:10149000B5F1FF3F05D06B1C5BB284F845300120ED
:1014A000EAE7636A0BB90120E6E704F1240000F0E3
:1014B0002DFD30B1B8F1000F05D00120C8F80000B3
:1014C000DAE70120D8E70120D6E70000F0B585B0C3
:1014D000019290B10E460446C1B100F0B1FD07463D
:1014E00000BB019B002B5CD04FF0500383F31188AD
:1014F000BFF36F8FBFF34F8FFEE74FF0500383F3BF
:101500001188BFF36F8FBFF34F8FFEE7036C002B83
:10151000E3D04FF0500383F31188BFF36F8FBFF315
:101520004F8FFEE700273CE031462046FFF7C0FD25
:10153000013DA563236923B901F026FA012005B016
:10154000F0BD04F1100000F0E1FC0028F4D0354BB0
:101550004FF080521A60BFF34F8FBFF36F8FEBE7EE
:1015600001F012FA0020EAE702A800F015FD0127B9
:1015700021E0002384F8443029E0002384F845303A
:101580002BE02046FFF7A6FD00F09AFB09E020467D
:10159000FFF7A0FD00F094FB2046FFF741FD002877
:1015A0003DD101F0CFF9A56B002DBDD1019B002BE2
:1015B000D6D0002FD8D001F0E7F900F0E7FA01F01B
:1015C000C1F994F844305BB2B3F1FF3FD1D094F845
:1015D00045305BB2B3F1FF3FCFD001F0D5F901A99F
:1015E00002A800F0E5FC0028D1D12046FFF718FD45
:1015F0000028C6D0019904F1240000F053FC2046D5
:10160000FFF768FD00F05CFB0028CAD1054B4FF0E6
:1016100080521A60BFF34F8FBFF36F8FC1E7002076
:101620008DE700BF04ED00E0002300E00133072B4D
:101630000BD8064A52F83320002AF7D1034A42F861
:10164000331002EBC30358607047704784220020B8
:1016500070B504460D46164601F074F994F844300E
:101660005BB2B3F1FF3F0DD094F845305BB2B3F1FC
:10167000FF3F0BD001F088F9A36B5BB12046FFF769
:1016800029FD70BD002384F84430EDE7002384F881
:101690004530EFE73246294604F1240000F01AFCF9
:1016A000ECE70000084B1B681B6823B9074B4FF0A1
:1016B000FF321A607047044B1B68DB68DB685A68AE
:1016C000024B1A60704700BF9800002040050020C0
:1016D0002DE9F04780460D4617469946089EDDF8ED
:1016E00024A00A9C9200A521206B01F09FFA236B95
:1016F00007F18042013A03EB820727F00707002237
:101700000F2A07D8A95CA31883F83410AB5C0BB17F
:101710000132F5E7002384F84330372E00D937260D
:10172000E662E66400252565201DFFF730FC04F124
:101730001800FFF72CFC2461C6F13806A66164622C
:10174000C4F8805484F884544FF48562294604F127
:10175000580001F06BFA04F55173E36504F56B73FF
:10176000236604F21443636601220023C4E9402384
:1017700043F20E33A4F808314AF6CD33A4F80A3107
:1017800041F23423A4F80C314EF26D63A4F80E310B
:101790004DF6EC63A4F810310523A4F812310B23A5
:1017A000A4F814314A464146384601F0A7F82060B3
:1017B000BAF1000F01D0CAF80040BDE8F087000080
:1017C00038B50024372C08D804EB840293000E4867
:1017D0001844FFF7D1FB0134F4E70C4D2846FFF71E
:1017E000CBFB0B4C2046FFF7C7FB0A48FFF7C4FBB7
:1017F0000948FFF7C1FB0948FFF7BEFB084B1D6016
:10180000084B1C6038BD00BFA00000201805002058
:101810002C050020480500207405002060050020EC
:10182000980000209C00002010B5044601F08AF8C2
:10183000214A136801331360204B1B685BB1204BB6
:101840001B686BB91D4B1B68DA6AE36A9A4207D8BA
:101850001A4B1C6004E0194B1C601368012B27D045
:10186000184A1368013313606364E06A164B1B68FF
:10187000984201D9144B186000EB8000211D134BD6
:1018800003EB8000FFF786FB01F07EF80C4B1B6832
:101890006BB10A4B1B68DA6AE36A9A4207D20C4BB7
:1018A0004FF080521A60BFF34F8FBFF36F8F10BDA0
:1018B000FFF786FFD4E700BF00050020940000205A
:1018C0005C0500201005002014050020A000002069
:1018D00004ED00E010B50446583001F0BDF994F86D
:1018E000853463B1012B11D0022B0ED04FF0500381
:1018F00083F31188BFF36F8FBFF34F8FFEE7206B29
:1019000000F094FF204600F091FF10BD204600F04B
:101910008DFFFAE70F4B1B68D3B110B501F012F839
:101920000D4BDB68DC68201DFFF758FB0B4A136882
:10193000013B1360074A1368013B136001F024F870
:101940002046FFF7C7FF034B1B68002BE6D110BDF5
:10195000704700BF0405002074050020000500202A
:1019600008B5FFF7D7FF064B1B68012BF9D9054BCC
:101970004FF080521A60BFF34F8FBFF36F8FF0E7C5
:10198000A000002004ED00E070B504460D46174BA2
:101990001E68174B18680430FFF720FBB4F1FF3FB7
:1019A0000DD03444124B1B685C60A64210D9114B19
:1019B00018680F4B19680431FFF7F7FA70BD002D56
:1019C000EFD00B4B196804310B48FFF7E3FAF5E74A
:1019D0000A4B1868064B19680431FFF7E6FA084B02
:1019E0001B68A342EAD9064B1C60E7E78805002084
:1019F000940000209C00002060050020980000203A
:101A00004005002070B586B00B9D0C9C85B1C4B11B
:101A10004FF491660496049EB6F5916F1AD04FF07C
:101A2000500383F31188BFF36F8FBFF34F8FFEE72F
:101A30004FF0500383F31188BFF36F8FBFF34F8FC5
:101A4000FEE74FF0500383F31188BFF36F8FBFF3AE
:101A50004F8FFEE72563022584F885540025039502
:101A6000029405AD01950A9D0095FFF731FE2046D1
:101A7000FFF7DAFE059806B070BD2DE9F04385B09A
:101A80000746884614461E46900000F057FE08B3ED
:101A900081464FF4916000F051FE0546B0B1C0F8A8
:101AA0003090E5B1002385F88534039302950D9BB2
:101AB00001930C9B00933346224641463846FFF77C
:101AC00007FE2846FFF7B0FE012005E0484600F07B
:101AD000ADFEE6E74FF0FF3005B0BDE8F0834FF014
:101AE000FF30F9E710B588B000240594069407AAE2
:101AF00006A905A800F0AEFD059B0293069B019385
:101B000000942346079A1A491A48FFF77BFF48B109
:101B100000F05AFB0346012B06D0B3F1FF3F1DD066
:101B200008B010BD0023F6E74FF0500383F311888F
:101B3000BFF36F8FBFF34F8F0F4B1B6858330F4AA4
:101B400013600F4B4FF0FF321A600E4B01221A60E8
:101B50000D4B00221A6000F087FFE1E74FF05003C1
:101B600083F31188BFF36F8FBFF34F8FFEE700BF82
:101B7000382E000861190008940000201000002091
:101B8000400500205C05002088050020024A1368FB
:101B900001331360704700BF0C050020014B18682B
:101BA000704700BF88050020F8B53A4B1B68002B32
:101BB00065D1394B1D6801351D60C5B9374B1B68B0
:101BC0001B6843B14FF0500383F31188BFF36F8F4D
:101BD000BFF34F8FFEE7314A1168314B1868106030
:101BE0001960304A136801331360FFF75BFD2E4B19
:101BF0001B68AB420CD900242C4B1B68DB6A03EB3F
:101C000083039A002A4B9B58012B3DD901243BE0CA
:101C1000002416E0244B4FF0FF321A60ECE7224A12
:101C20001360E9E703EB83039A0039462048104428
:101C3000FFF7B0F9F26A1D4B1B68DB6A9A4200D3CA
:101C40000124164B1B681B68002BE3D0134B1B6849
:101C5000DB68DE6873689D42E1D3371D3846FFF7C5
:101C6000BDF9B36A1BB106F11800FFF7B7F9F36AC3
:101C7000104A12689342D5D90E4A1360D2E70E4A31
:101C800013680133136000240C4B1B6803B101245B
:101C90002046F8BD0C050020880500209800002093
:101CA0009C000020440500204005002094000020F6
:101CB000A000002014050020080500208C0500204D
:101CC00038B5344B1B6843B94FF0500383F3118888
:101CD000BFF36F8FBFF34F8FFEE700F033FE2D4B46
:101CE0001A68013A1A601B68002B4DD12A4B1B68F9
:101CF0000BB9002449E00024284B1B681BB3274B79
:101D0000DB68DC6804F11800FFF768F9251D284638
:101D1000FFF764F9E06A224B1B68984201D9204B17
:101D2000186000EB800029461E4B03EB8000FFF794
:101D300031F9E26A1C4B1B68DB6A9A42DCD31B4B0D
:101D400001221A60D8E70CB1FFF7ACFC184B1C68F5
:101D500074B9164B1C68C4B1164B4FF080521A6010
:101D6000BFF34F8FBFF36F8F01240EE0013C07D00C
:101D7000FFF71AFF0028F9D00C4B01221A60F5E793
:101D80000B4B00221A60E4E7002400F0FDFD204622
:101D900038BD00BF0C0500200005002048050020CC
:101DA00014050020A0000020940000208C050020D5
:101DB0000805002004ED00E010B5A8B104460F4B63
:101DC0001B6843B14FF0500383F31188BFF36F8F4B
:101DD000BFF34F8FFEE7FFF7D9FE00212046FFF744
:101DE000D3FDFFF76DFF38B9054B4FF080521A60F5
:101DF000BFF34F8FBFF36F8F10BD00BF0C050020E6
:101E000004ED00E0214B1B681BB1214B01221A603D
:101E100070471F4B00221A601E4B1B6803EB8301A7
:101E20008A001D498A585AB90BB1013BF6E74FF0B9
:101E3000500383F31188BFF36F8FBFF34F8FFEE71B
:101E400010B403EB830082000A445068406850607D
:101E500003EB8304A200144608321144884210D0D8
:101E600003EB830291000C4A0A445268D1680B4A82
:101E7000116008490B6013685833094A136010BC9D
:101E800070474068044A22445060E9E70C0500208E
:101E90008C05002014050020A000002094000020E4
:101EA0001000002058B110B50C46094B19681831C4
:101EB000FFF77BF801212046FFF766FD10BD4FF0CC
:101EC000500383F31188BFF36F8FBFF34F8FFEE78B
:101ED0009400002038B570B10C4615460A4B1968BD
:101EE0001831FFF757F80DB14FF0FF34294620465F
:101EF000FFF74AFD38BD4FF0500383F31188BFF35D
:101F00006F8FBFF34F8FFEE79400002038B5C36892
:101F1000DC6824B304F118052846FFF75FF8184B76
:101F20001B682BBB251D2846FFF758F8E06A154BA8
:101F30001B68984201D9134B186000EB80002946BA
:101F4000114B03EB8000FFF725F8E26A0F4B1B688B
:101F5000DB6A9A4211D901200D4B18600EE04FF058
:101F6000500383F31188BFF36F8FBFF34F8FFEE7EA
:101F700029460848FFF70EF8E7E7002038BD00BF04
:101F80000C05002014050020A00000209400002073
:101F90008C05002048050020034B1B680360034BA1
:101FA0001B684360704700BF44050020880500207F
:101FB000F8B5C8B10C460546F9B100F0C3FC1B4B9F
:101FC00019686B68C81A2268B2F1FF3F26D02F68E3
:101FD000174E3668B74201D08B4224D9824215D8B9
:101FE0000023236001241AE04FF0500383F311888B
:101FF000BFF36F8FBFF34F8FFEE74FF0500383F3B4
:102000001188BFF36F8FBFF34F8FFEE75B1A134446
:1020100023602846FFF7C0FF002400E0002400F002
:10202000B3FC2046F8BD0124F9E700BF8805002075
:1020300044050020014B01221A6070478C050020E6
:10204000054B1B6833B1054B1B680BB10020704773
:1020500002207047012070475C0500200C0500201D
:1020600000283BD038B504461E4B1B68834208D07D
:102070004FF0500383F31188BFF36F8FBFF34F8F7F
:10208000FEE7036D43B94FF0500383F31188BFF3AC
:102090006F8FBFF34F8FFEE7013B0365C16AC26CD0
:1020A00091421DD00BB1002038BD051D2846FEF71A
:1020B00095FFE06CE062C0F13803A3610A4B1B6836
:1020C000984201D9084B186000EB80002946074B65
:1020D00003EB8000FEF75EFF0120E5E7002070477C
:1020E0000020E1E79400002014050020A00000205B
:1020F000064B1A681368B3FA83F35B09036013B9DC
:10210000D368186870470020704700BF9005002012
:1021100008B54160006191420CD8D21A83699A4295
:1021200001D3012008BD011D094B1868FEF73DFFD2
:102130000020F7E79A4201D2994206D2011D054BD1
:102140001868FEF732FF0020ECE70120EAE700BF45
:10215000940500209005002030B583B000F0F2FB1C
:10216000114B1B681BB100F00FFC03B030BD0F4DCD
:102170002846FEF701FF0E4C2046FEF7FDFE0D4BF4
:102180001D600D4B1C60002300930C4B0C4A10216A
:102190000A20FFF72AF8044B18600028E3D0094909
:1021A000FFF742FADFE700BFB40600203806002040
:1021B0004C060020900500209405002064060020B5
:1021C00098050020402E000810B588B0FFF7C4FF26
:1021D000124B1B68CBB100240594069407AA06A9EC
:1021E00005A800F043FA059B0293069B0193022386
:1021F00000932346079A0A490A48FFF703FC0A4A54
:10220000106010B1012008B010BD4FF0500383F3EF
:102210001188BFF36F8FBFF34F8FFEE7B406002026
:10222000482E000809250008B8060020C0B110B5E6
:1022300084B014461A4603461648006838B3009125
:102240000194029305291CDCFFF7FAFE022810D046
:1022500000231A4669460F480068FFF70FF814E09C
:102260004FF0500383F31188BFF36F8FBFF34F8F8D
:10227000FEE70023069A694606480068FEF7FEFF5F
:1022800003E000236946FFF7B9F804B010BD002051
:10229000FBE700BFB406002070B582B01A4B1B6884
:1022A0001A6852B3DB681E68DC68251D2846FEF7F5
:1022B00095FE636A20469847E369012BEED1A36936
:1022C00033449E4207D26360246129460E4B18684E
:1022D000FEF76BFEE2E7002100910B4632462046F6
:1022E000FFF7A4FF0028D9D14FF0500383F31188E2
:1022F000BFF36F8FBFF34F8FFEE7044A10680249A8
:102300000860136002B070BD9005002094050020A5
:1023100038B50546FFF742FC0446074B1B6883426D
:1023200005D800232B60044B1C60204638BDFFF706
:10233000B3FF01232B60F6E76006002070B582B082
:1023400005460E46144B1B68DB68DC68201DFEF753
:1023500045FEE369012B04D0636A2046984702B02A
:1023600070BDA1692B46324629442046FFF7D0FEB6
:102370000028F1D0002100910B462A462046FFF7A5
:1023800055FF0028E8D14FF0500383F31188BFF3C5
:102390006F8FBFF34F8FFEE79005002070B582B0BE
:1023A00006460C46FFF7F2FB01A8FFF7B1FF019BC1
:1023B0001BBB05460CB9B04218D22CB1114B1B689F
:1023C0001C68B4FA84F464092246711B0E4B186829
:1023D000FFF73EF9FFF774FC88B90C4B4FF08052C1
:1023E0001A60BFF34F8FBFF36F8F08E0FFF768FCF1
:1023F00029463046FFF7A2FF01E0FFF761FC02B07B
:1024000070BD00BF94050020B406002004ED00E07C
:1024100010B588B006E007990698059B9847049B7D
:10242000002B0BDA002204A9364B1868FFF74EF890
:10243000002865D0049B002BF1DAECE7069C636969
:1024400013B1201DFEF7CAFD03A8FFF761FF049B2F
:10245000092BE7D801A252F823F000BF8524000819
:10246000852400088524000825240008CB240008C2
:10247000F12400088524000885240008252400088C
:10248000CB240008059BA169024619442046FFF7AA
:102490003FFE0028C6D0636A20469847E369012BB7
:1024A000C0D1A269002100910B4605980244204644
:1024B000FFF7BCFE0028B5D14FF0500383F311881D
:1024C000BFF36F8FBFF34F8FFEE70599A16131B165
:1024D0000346024601442046FFF71AFEA2E74FF0EA
:1024E000500383F31188BFF36F8FBFF34F8FFEE765
:1024F00094F82C30002B95D1204600F097F991E705
:1025000008B010BDB406002000B583B001A8FFF7E5
:10251000EFFD0199FFF742FFFFF77AFFF6E70000B2
:10252000F0B587B000240494EFF30584002C44D167
:10253000EFF31083002B40D1344B1B68022B22D0C9
:1025400000283AD000238DF817306AB31568F5B12A
:10255000936903B918235C1E372C52D8546814F0C1
:10256000010F50D15669AEB14FEA960C946834B160
:10257000D768B7F5916F02D3176907B106BB64B18D
:102580004FF0FF3416E0EFF31183B3B9D8E70DF144
:102590001705DDE74FF0800CE8E7D46894B91469BB
:1025A0009CB14FF0FF3405E0002418234FF0800C5D
:1025B0000DF11705012C0AD0ACB1049807B0F0BD9D
:1025C0000124F7E74FF0FF34F4E70024F2E7146941
:1025D00092680292019400930B4662462946FFF7E7
:1025E00011FA0490E9E704AA019200930B461FFA3E
:1025F0008CF22946FFF741FA0128DED0002304932C
:10260000DBE70020DAE70020D8E700BF480D002014
:1026100008B5EFF30583A3B9EFF31083A3B90C4B0F
:102620001B68022B02D040B9002008BDEFF31183D4
:10263000002BF8D06FF00500F7E7FFF7BDFB002097
:10264000F3E76FF00500F0E76FF00500EDE700BF7E
:10265000480D0020034B0360034B0B608023136085
:10266000704700BFC0080020BC060020034B036079
:10267000034B0B604FF480731360704750110020C0
:102680004C0D0020124A12F0070F1ED0D11D21F070
:102690000701C1F5406313440A460E480260002159
:1026A00041601344083B23F007030B480360596063
:1026B0001960991A51601360084B1960084B196032
:1026C000084B4FF000421A6070474FF44063E4E754
:1026D000DC150020E8210020D8150020E42100208E
:1026E000E0210020DC21002010B4124B1A461B68A8
:1026F0008342FBD351685418844209D0416844187E
:10270000A3420AD00360904200D0106010BC704712
:102710004068014451601046F0E7074C2468A3422A
:1027200006D05B681944416013681B680360EAE7E0
:102730000460E8E7E8210020D815002070B50446C1
:10274000FFF724FA344B1B68A3B1344B1B681C42BF
:102750004AD134B1083414F0070F02D024F0070432
:102760000834002C42D02E4B1B68A3424DD32D4B76
:102770001D6804E0FFF786FFE7E72B4615466A6809
:10278000A24202D22A68002AF7D1234A1268AA423A
:102790003DD01E6808362A681A606B681B1B102B18
:1027A00010D9281910F0070F08D04FF0500383F309
:1027B0001188BFF36F8FBFF34F8FFEE743606C60EC
:1027C000FFF792FF6A6816490B689B1A0B6016495F
:1027D00009688B4201D214490B60104B1B681343EC
:1027E0006B6000232B6002E0002600E00026FFF76C
:1027F00067FA16F0070F0CD04FF0500383F31188DF
:10280000BFF36F8FBFF34F8FFEE70026EFE7002681
:10281000EDE7304670BD00BFD8150020DC21002058
:10282000E0210020E8210020E421002080B338B519
:102830000446A0F1080550F8043C164A12681342F9
:1028400008D14FF0500383F31188BFF36F8FBFF3AC
:102850004F8FFEE750F8081C41B14FF0500383F34F
:102860001188BFF36F8FBFF34F8FFEE723EA020398
:1028700040F8043CFFF78AF954F8041C064A136830
:102880000B4413602846FFF72FFFFFF719FA38BDF6
:10289000704700BFDC210020E021002082B000232F
:1028A00001930D4B1B68B3F1FF3F08D04FF050036D
:1028B00083F31188BFF36F8FBFF34F8FFEE74FF0A5
:1028C000500383F31188BFF36F8FBFF34F8F019BCA
:1028D000002BFCD002B070470C00002006480068B6
:1028E000006880F3088862B661B6BFF34F8FBFF30C
:1028F0006F8F00DF00BF000008ED00E04FF0807335
:1029000040F8043C21F0010140F8081C034B40F85A
:102910000C3C40F8202C4038704700BF9D28000830
:10292000074B19680868B0E8F00F80F30988BFF317
:102930006F8F4FF0000080F311884EF00D0E70473E
:10294000940000204FF0500383F31188BFF36F8F82
:10295000BFF34F8F0A4A136801331360012B00D075
:102960007047084B1B6813F0FF0FF9D04FF050036E
:1029700083F31188BFF36F8FBFF34F8FFEE700BF64
:102980000C00002004ED00E0094B1B6843B94FF038
:10299000500383F31188BFF36F8FBFF34F8FFEE7B0
:1029A000013B034A13600BB983F31188704700BFE2
:1029B0000C000020000000000000000000000000EB
:1029C000EFF30980BFF36F8F0D4B1A6820E9F00F0A
:1029D00010602DE908404FF0500080F31188FFF798
:1029E00011FA4FF0000080F31188BDE80840196823
:1029F0000868B0E8F00F80F30988BFF36F8F704765
:102A00009400002008B54FF0500383F31188BFF302
:102A10006F8FBFF34F8FFFF7C7F818B1034B4FF01D
:102A200080521A60002383F3118808BD04ED00E092
:102A3000084A0023136008490B60084B1B680849CB
:102A4000A1FB03139B09013B06490B60072313609D
:102A5000704700BF10E000E018E000E00800002030
:102A6000D34D621014E000E010B582B0274B1A7805
:102A7000D2B20192FF221A701B78DBB28DF80330BC
:102A80009DF8033003F05003214A1370214B0722B5
:102A90001A609DF8033013F0800F0AD01D4A1368A6
:102AA000013B13609DF803305B00DBB28DF803300F
:102AB000EFE7184B1B68032B08D04FF0500383F34C
:102AC0001188BFF36F8FBFF34F8FFEE71B0203F434
:102AD000E063104A1360019BDBB20C4A13700E4B8B
:102AE0001A6842F470021A601A6842F070421A6062
:102AF000FFF79EFF0024094B1C60FFF7EFFEFFF776
:102B000081F9FFF7CBFE204602B010BD00E400E0E3
:102B1000F0210020F421002020ED00E00C00002036
:102B2000EFF305830F2B0FD9104A9B5CDBB2104AE1
:102B300012789A4208D94FF0500383F31188BFF3FB
:102B40006F8FBFF34F8FFEE70A4B1B6803F4E06300
:102B5000094A1268934208D94FF0500383F3118851
:102B6000BFF36F8FBFF34F8FFEE77047F0E300E0D6
:102B7000F02100200CED00E0F4210020002103E012
:102B80000B4B5B58435004310A480B4B42189A4296
:102B9000F6D30A4A02E0002342F8043B084B9A426B
:102BA000F9D3FEF7C3F900F00FF8FDF721FB7047EA
:102BB000582E00080000002074000020780000203B
:102BC000D0220020FEE7000070B500260C4D0D4C11
:102BD000641BA410A64209D100F0F4F800260A4DA7
:102BE0000A4C641BA410A64205D170BD55F8043BE5
:102BF00098470136EEE755F8043B98470136F2E76F
:102C0000502E0008502E0008502E0008542E0008A8
:102C10000A44914200F1FF3300D1704710B511F81A
:102C2000014B914203F8014FF9D110BD0346024414
:102C3000934200D1704703F8011BF9E738B50C4601
:102C40000968054609B1FFF7F9FF21462846BDE8A6
:102C5000384000F05DB800002C4B70B51B6804468E
:102C6000834251D0436A43B1DB68002B4AD1636A87
:102C7000196811B1204600F04BF8616911B1204686
:102C800000F046F8616A11B1204600F041F8A16BEE
:102C900011B1204600F03CF8E16B11B1204600F084
:102CA00037F8216C11B1204600F032F8E16D11B116
:102CB000204600F02DF8A16D11B1204600F028F853
:102CC000616B11B1204600F023F8A369E3B12046FF
:102CD000A36A9847A16CB9B12046BDE87040FFF7E0
:102CE000ADBF495941B90435636A802DD968F8D11F
:102CF000204600F00DF8BAE70E68204600F008F80C
:102D00003146EFE70025EFE770BD00BF100000205F
:102D100038B50546002943D051F8043C0C1F002B60
:102D2000B8BFE41800F040F81E4A1368104633B9E3
:102D3000636014602846BDE8384000F03BB8A34209
:102D40000AD921686218934201BF1A685B68521859
:102D5000226063600460EDE71A465B680BB1A34232
:102D6000FAD911685018A0420BD1206801445018BC
:102D700083421160DED118685B68014411605360C2
:102D8000D8E702D90C232B60D4E7206821188B42A6
:102D900001BF19685B680918216063605460C9E766
:102DA00038BD00BFF8210020014800F009B800BF7D
:102DB000C8220020014800F004B800BFC82200204B
:102DC00070477047F8B500BFF8BC08BC9E46704716
:0C2DD000F8B500BFF8BC08BC9E46704778
:102DDC0064656661756C745461736B00DC2D00085E
:102DEC0000000000000000000000000000000000D7
:102DFC0000020000180000000000000000000000AD
:102E0C0002030405060708090A0B0C0D0E0F10101F
:102E1C00000000000000000000000000010203049C
:102E2C0006070809000000000102030449444C4550
:102E3C0000000000546D725100000000546D7220AF
:042E4C005376630056
:042E50003501000840
:042E54001101000860
:102E580001000000100000000024F400AAAAAAAA99
:102E68001400002000000000000000000000000026
:102E7800000000000000000000000000000000004A
:102E8800000000000000000000000000000000003A
:102E9800000000000000000000000000000000002A
:102EA800000000000000000000000000000000001A
:102EB800000000000000000000000000000000000A
:042EC8000000000006
:0400000508002B7D47
:00000001FF
