:020000040800F2
:1000000000500020AD370008E9030008EB030008AA
:10001000ED030008EF030008F103000800000000F2
:100020000000000000000000000000005135000842
:10003000F303000800000000F13500083536000821
:10004000F5370008F5370008F5370008F5370008E0
:10005000F5370008F5030008F5370008F537000804
:10006000F5370008F5370008F5370008F5370008C0
:10007000F5370008F5370008F5370008F5370008B0
:10008000F5370008F5370008F5370008F5370008A0
:10009000F5370008F5370008F5370008F7030008C2
:1000A000F5370008F5370008F5370008F537000880
:1000B000F5370008F537000805040008F537000893
:1000C000F5370008F5370008F53700081504000873
:1000D0002504000835040008F5370008F537000846
:1000E000F5370008F5370008F53700080000000074
:1000F0000000000000000000000000000000000000
:0C01000000000000000000005FF808F1A3
:1001100010B5054C237833B9044B13B10448AFF341
:1001200000800123237010BD740000200000000037
:100130001441000808B5034B1BB103490348AFF352
:10014000008008BD00000000780000201441000875
:1001500010B588B000240794184B9A6942F0200229
:100160009A619A6902F020020192019A9A6942F01A
:1001700004029A619A6902F004020292029A9A6950
:1001800042F008029A619B6903F008030393039B02
:100190004FF4007304930A4B05930223069304A9BA
:1001A000084800F0BDFE22460521172001F034F872
:1001B000172001F065F808B010BD00BF0010024024
:1001C00000001110000C014008B50C480C4B0360F6
:1001D0004FF48273436000238360C3600361436113
:1001E0004FF4007282610822C2610362436283623B
:1001F0000A23C36200F056FA08BD00BFC01A0020EF
:100200000030014008B50B480B4B03604FF482737C
:10021000436000238360C360036143614FF4007255
:100220008261C3610362436283620A23C36200F096
:1002300039FA08BD281A00200038004008B50848DF
:10024000084B03604FF4E133436000238360C360D5
:1002500003610C2242618361C36101F0F1F908BDC1
:10026000801A0020003801400FB410B582B004ABF2
:1002700053F8042B01930B4C7E21204603F022FB04
:10028000431C0D22225402300A22E254002323543C
:1002900082B22146044801F002FA02B0BDE81040E3
:1002A00004B0704790000020801A0020F0B583B0A1
:1002B0001348FFF7D9FF02F0FBF90546002609E0D5
:1002C000104F02F0F5F90446421BB2F57A7F11DCBB
:1002D0000136254643F698230093002301224FF66A
:1002E000FF710948006801F037FB10F0010FE7D0FB
:1002F000064FE6E73B4631460548FFF7B5FFE7E71F
:10030000484100082C410008100100203841000835
:100310005841000830B591B0002409940B940C9416
:1003200001940294039404940594012206924FF4DC
:100330008033079308940A9202250D950E934FF48B
:10034000E0130F9306A800F0B3FA0F230193029570
:1003500003944FF4806304930594294601A800F0A8
:10036000E5FC11B030BD000008B500F067FAFFF7FA
:10037000D1FFFFF7EDFEFFF727FFFFF743FFFFF782
:100380005DFF01F0DBFA074B186002F0B7FE064A8A
:100390000021064802F0FAFE054B186002F0D0FE7C
:1003A000FEE700BF1001002078410008AD02000800
:1003B000241A0020B0F5007F00D0704708B5002255
:1003C0000121024B186801F097FB08BD10010020C5
:1003D00008B50268034B9A4200D008BD00F040FA0D
:1003E000FBE700BF000800407047FEE7FEE7FEE7BE
:1003F000FEE77047704708B54FF4007000F0A0FEAC
:1004000008BD000008B5024800F05EFF08BD00BF4F
:10041000181B002008B5024800F084F908BD00BF91
:10042000C01A002008B5024800F07CF908BD00BFE2
:10043000281A002008B5024801F0B4F908BD00BF31
:10044000801A002000B583B0154B9A6942F0010272
:100450009A619A6902F001020092009ADA6942F008
:100460008052DA61DB6903F080530193019B002223
:100470000F216FF0010000F0CFFE00220521084699
:1004800000F0CAFE052000F0FBFE064A536823F088
:10049000E06343F00073536003B05DF804FB00BFFA
:1004A000001002400000014030B589B000230493E1
:1004B0000593069307930368344A934204D0344A61
:1004C000934231D009B030BD324B9A6942F4805228
:1004D0009A619A6902F480520092009A9A6942F0F5
:1004E00004029A619B6903F004030193019BA0231A
:1004F00004930223059303230793274D04A9284659
:1005000000F00EFD4023049300240594069404A9F2
:10051000284600F005FD22460521232000F07CFE40
:10052000232000F0ADFECDE71A4BDA6942F4804299
:10053000DA61DA6902F480420292029A9A6942F020
:1005400008029A619B6903F008030393039B4FF42D
:100550002043049302230593032307930F4D04A91B
:10056000284600F0DDFC4FF48043049300240594FA
:10057000069404A9284600F0D3FC22460521242035
:1005800000F04AFE242000F07BFE9BE70030014093
:10059000003800400010024000080140000C0140FB
:1005A00030B587B000230293039304930593026848
:1005B0001B4B9A4201D007B030BD03F558439A69EE
:1005C00042F480429A619A6902F480420092009A51
:1005D0009A6942F004029A619B6903F00403019353
:1005E000019B4FF4007302930223039303230593AB
:1005F0000C4D02A9284600F093FC4FF4806302934F
:1006000000240394049402A9284600F089FC2246A1
:100610000521252000F000FE252000F031FECAE76C
:10062000003801400008014000B589B001460022B1
:100630001E2000F0F1FD1E2000F022FE154BDA69AD
:1006400042F00402DA61DB6903F004030193019BC9
:1006500002A903A800F046FC00F024FC43000E4869
:10066000A0FB03239B0C013B0C480D4A026040F2A7
:10067000E732C260436000230361836000F01CFF27
:1006800018B1012009B05DF804FB044800F007FE32
:10069000F8E700BF0010024083DE1B43181B002058
:1006A00000080040002839D010B5044600238362BA
:1006B00090F85130002B2CD0022384F8513022685E
:1006C000136823F0400313606368A2681343E26871
:1006D00013432269134362691343A26902F400724F
:1006E0001343E2691343226A1343A16A22680B434E
:1006F0001360638B226803F0040353602268D3699C
:1007000023F40063D36100206065012384F8513035
:1007100010BD80F85030FFF7C7FECDE701207047CD
:100720007047000030B585B0044602685168936890
:10073000C3F3801013F0400F05D113F0010F02D066
:1007400011F0400F5AD113F0020F02D011F0800FB8
:1007500058D1C3F3401513F0200F01D1002854D015
:1007600011F0200F51D078B194F85130DBB2032B47
:100770004DD0636D43F00403636500230193D36898
:10078000019393680193019B65B1636D43F001038D
:1007900063650023039393680393136823F0400376
:1007A0001360039B636D002B2FD02268536823F0E6
:1007B000E0035360012384F8513011F0030F2ED071
:1007C0002268536823F003035360E36C4BB1164A6D
:1007D0005A63E06C00F0C2FC18B1636D43F0400353
:1007E0006365A36C8BB1104A5A63A06C00F0B6FC31
:1007F00058B1636D43F04003636506E0236C204607
:10080000984702E0636C2046984705B030BD00234E
:100810000293D368029393680293029BF5E7204604
:10082000FFF77EFFF1E700BF2D08000808B5406A1A
:100830000023C387C386FFF773FF08BD08B5074AC7
:10084000136843F010031360032000F0D3FC002072
:10085000FFF7EAFEFFF7F6FD002008BD002002408A
:10086000034A1168034B1B780B441360704700BFA9
:10087000581B002000000020014B1868704700BF83
:10088000581B002082B0084B1B68084AA2FB0323B8
:100890005B0A00FB03F3019300BF019B5A1E019208
:1008A000002BF9D102B0704708000020D34D621030
:1008B000002800F0F18170B582B00446036813F09F
:1008C000010F2CD0AA4B5B6803F00C03042B1DD046
:1008D000A74B5B6803F00C03082B12D06368B3F5D9
:1008E000803F41D0002B55D103F1804303F5043301
:1008F0001A6822F480321A601A6822F480221A6080
:1009000037E09B4B5B6813F4803FE7D0984B1B6844
:1009100013F4003F03D06368002B00F0BF8123680D
:1009200013F0020F75D0924B5B6813F00C0F5FD081
:100930008F4B5B6803F00C03082B54D02369002B0A
:1009400000F089808B4B01221A60FFF795FF054666
:10095000874B1B6813F0020F74D1FFF78DFF401B0C
:100960000228F5D903209EE1814A136843F48033BD
:100970001360636843B3FFF77FFF05467C4B1B683A
:1009800013F4003FCBD1FFF777FF401B6428F5D964
:10099000032088E1B3F5A02F09D0754B1A6822F423
:1009A00080321A601A6822F480221A60E1E703F1AB
:1009B0008043A3F53C331A6842F480221A601A6817
:1009C00042F480321A60D4E7FFF756FF0546684BC1
:1009D0001B6813F4003FA2D0FFF74EFF401B6428B2
:1009E000F5D903205FE1624B5B6813F4803FA5D12A
:1009F0005F4B1B6813F0020F03D02369012B40F0FB
:100A00004F815B4A136823F0F803616943EAC1032D
:100A10001360236813F0080F32D0A369002B45D070
:100A2000554B01221A60FFF727FF0546504B5B6AC2
:100A300013F0020F21D1FFF71FFF401B0228F5D949
:100A4000032030E14A4A136823F0F803616943EA5E
:100A5000C1031360DDE7474B00221A60FFF70CFF6C
:100A60000546434B1B6813F0020FD2D0FFF704FF7B
:100A7000401B0228F5D9032015E10120FFF702FFF2
:100A8000236813F0040F00F09780394BDB6913F0F3
:100A9000805F1DD1364BDA6942F08052DA61DB6942
:100AA00003F080530193019B012512E0324B002299
:100AB0001A60FFF7E1FE05462D4B5B6A13F0020F4B
:100AC000DED0FFF7D9FE401B0228F5D90320EAE06B
:100AD00000252A4B1B6813F4807F11D0E368012B9B
:100AE00022D0002B38D103F1804303F504331A6A76
:100AF00022F001021A621A6A22F004021A6218E055
:100B00001E4A136843F480731360FFF7B5FE064670
:100B10001A4B1B6813F4807FE0D1FFF7ADFE801BFA
:100B20006428F5D90320BEE0114A136A43F001039B
:100B30001362E36873B3FFF79FFE06460C4B1B6A14
:100B400013F0020F37D1FFF797FE801B41F2883375
:100B50009842F3D90320A6E0052B11D0044B1A6A62
:100B600022F001021A621A6A22F004021A62E0E715
:100B700000100240000042428004424200700040E7
:100B80004D4B1A6A42F004021A621A6A42F00102DC
:100B90001A62CEE7FFF770FE0646474B1B6A13F05A
:100BA000020F08D0FFF768FE801B41F2883398429D
:100BB000F3D9032077E0E5B9E369002B72D03E4A10
:100BC000526802F00C02082A56D0022B17D03B4B79
:100BD00000221A60FFF750FE0446374B1B6813F0E3
:100BE000007F47D0FFF748FE001B0228F5D90320FD
:100BF00059E0314AD36923F08053D361DCE72F4BAE
:100C000000221A60FFF738FE05462B4B1B6813F0D5
:100C1000007F06D0FFF730FE401B0228F5D90320E5
:100C200041E0236AB3F5803F1AD023494B6823F48F
:100C30007413226A606A024313434B601F4B012204
:100C40001A60FFF719FE04461B4B1B6813F0007F68
:100C50000ED1FFF711FE001B0228F5D9032022E078
:100C6000154A536823F40033A1680B435360DCE753
:100C7000002018E0002016E0012B16D00E4B5B6818
:100C800003F48031226A914211D103F47013626A35
:100C900093420ED1002006E001207047012002E0BF
:100CA000012000E0002002B070BD0120FBE7012020
:100CB000F9E70120F7E700BF001002406000424260
:100CC00086B0164B0FCB0DF1180C0CE90F0040F25B
:100CD0000123ADF80430124B5B6803F00C02082AC4
:100CE00002D0104806B07047C3F38342624412F842
:100CF000102C13F4803F0CD0094B5B68C3F34043C6
:100D0000634413F8143C074800FB02F0B0FBF3F017
:100D1000E8E7054800FB02F0E4E700BF9C4100085B
:100D20000010024000127A0000093D00002800F087
:100D3000A08070B50D460446524B1B6803F00703B4
:100D40008B420BD24F4A136823F007030B43136007
:100D5000136803F007038B4240F08D80236813F083
:100D6000020F17D013F0040F04D0474A536843F41E
:100D7000E0635360236813F0080F04D0424A5368BD
:100D800043F460535360404A536823F0F003A16872
:100D90000B435360236813F0010F31D06368012BBC
:100DA00020D0022B25D0384A126812F0020F64D0EE
:100DB00035494A6822F0030213434B60FFF75CFD9C
:100DC0000646314B5B6803F00C036268B3EB820F9D
:100DD00016D0FFF751FD801B41F288339842F0D9BD
:100DE000032045E0284A126812F4003FE0D10120B8
:100DF0003EE0254A126812F0007FD9D1012037E089
:100E0000204B1B6803F00703AB420AD91D4A136845
:100E100023F007032B431360136803F00703AB426F
:100E20002DD1236813F0040F06D0174A536823F41A
:100E3000E063E1680B435360236813F0080F07D0A9
:100E4000114A536823F46053216943EAC103536094
:100E5000FFF736FF0C4B5B68C3F303130B4AD35CFD
:100E6000D8400B4B18600B4B1868FFF7DDFB0020D8
:100E700070BD012070470120FAE70120F8E701204A
:100E8000F6E700BF0020024000100240B041000819
:100E90000800002004000020014B1868704700BFC4
:100EA0000800002008B5FFF7F7FF044B5B68C3F3A9
:100EB0000223034AD35CD84008BD00BF00100240A3
:100EC000C041000808B5FFF7E7FF044B5B68C3F3B8
:100ED000C223034AD35CD84008BD00BF00100240C3
:100EE000C04100080F2303600B4B5A6802F0030255
:100EF00042605A6802F0F00282605A6802F4E062CE
:100F0000C2605B68DB0803F4E0630361034B1B68AA
:100F100003F007030B6070470010024000200240FE
:100F2000F0B482B000252C46A3E07F4FBB4210D026
:100F300007D97E4FBB420CD007F58037BB4208D0A3
:100F400013E0A7F58017BB4203D007F57027BB421B
:100F500007D18B68002B58D0012B51D04261082556
:100F600003E0A7F58017BB42F3D0FF2E4FD884468D
:100F7000FF2E4FD8A200DCF800300F27974023EA5D
:100F8000070305FA02F21343CCF800304B6813F064
:100F9000805F6DD0664B9A6942F001029A619B694D
:100FA00003F001030193019BA208971C614B53F8C6
:100FB000273004F00307BF004FF00F0C0CFA07FCBA
:100FC00023EA0C0C5C4B98422AD003F580639842CC
:100FD00000F08A8003F58063984200F0878003F573
:100FE000806398421AD004231BE0CD68BDE7CD682A
:100FF0000435BAE7CD680835B7E7CD680C35B4E7F6
:1010000002610825B1E70025AFE70425ADE700F14F
:10101000040CADE7A4F108029200ACE7032300E062
:101020000023BB4043EA0C030232424F47F8223010
:101030004B6813F4803F5BD0404A1368334313601E
:101040004B6813F4003F59D03C4A53683343536014
:101050004B6813F4801F57D0384A9368334393602A
:101060004B6813F4001F55D0344AD3681E43D66032
:1010700001340B6833FA04F252D00122A24003EA91
:10108000020632EA0303F3D14B68122B3FF64DAF51
:10109000122B3FF66AAF01A757F823F0530F000851
:1010A000EB0F0008F50F0008071000086B0F000891
:1010B0006B0F00086B0F00086B0F00086B0F000828
:1010C0006B0F00086B0F00086B0F00086B0F000818
:1010D0006B0F00086B0F00086B0F00086B0F000808
:1010E000EF0F0008FB0F000801239AE7022398E79F
:1010F000124A136823EA06031360A1E70F4A5368F4
:1011000023EA06035360A3E70C4A936823EA060325
:101110009360A5E7094AD36823EA0606D660A7E7E5
:1011200002B0F0BC704700BF000022100000311078
:10113000001002400000014000080140000401408E
:1011400008B5054B5B69034200D108BD024B5861ED
:10115000FFF730F9F9E700BF0004014008B590F847
:101160002130022B03D004238363012008BD0268D1
:10117000136823F00E0313600268136823F0010361
:1011800013600368194A934214D0143293421FD05B
:10119000143293421ED0143293421ED01432934222
:1011A0001ED01432934202D04FF0807203E04FF40D
:1011B000801200E001220E4B5A60012380F821309A
:1011C000002380F82030436B6BB198470020CDE7B7
:1011D0001022F0E74FF48072EDE74FF48052EAE717
:1011E0004FF48032E7E70020C0E700BF080002406C
:1011F00000000240074AD36823F4E0631B041B0C81
:10120000000200F4E060034343F0BF6343F40033A3
:10121000D360704700ED00E030B4174BDB68C3F3D8
:101220000223C3F10704042C28BF04241D1D062D2E
:1012300018D9033B4FF0FF3505FA04F421EA040105
:10124000994005FA03F322EA0303194300280BDB54
:101250000901C9B200F1604000F5614080F8001357
:1012600030BC70470023E5E700F00F000901C9B268
:10127000024B1954F4E700BF00ED00E014ED00E06C
:10128000002807DB00F01F02400901239340024AB7
:1012900042F82030704700BF00E100E0704702686C
:1012A000D36843F00103D3600268936803F0070337
:1012B000062B03D0136843F001031360002070472E
:1012C000704770477047704710B5044603681A6945
:1012D00012F0020F11D0DA6812F0020F0DD06FF089
:1012E00002021A610123037703689B6913F0030F5D
:1012F00070D0FFF7E6FF0023237723681A6912F006
:10130000040F12D0DA6812F0040F0ED06FF004024E
:101310001A610223237723689B6913F4407F5FD00F
:101320002046FFF7CEFF0023237723681A6912F0C7
:10133000080F12D0DA6812F0080F0ED06FF0080212
:101340001A61042323772368DB6913F0030F4ED05F
:101350002046FFF7B6FF0023237723681A6912F0AF
:10136000100F12D0DA6812F0100F0ED06FF01002CA
:101370001A61082323772368DB6913F4407F3DD08B
:101380002046FFF79EFF0023237723681A6912F097
:10139000010F03D0DA6812F0010F36D123681A6901
:1013A00012F0800F03D0DA6812F0800F34D1236876
:1013B0001A6912F0400F03D0DA6812F0400F32D1F0
:1013C00023681A6912F0200F03D0DA6812F0200F98
:1013D00030D110BDFFF774FF2046FFF773FF8AE797
:1013E0002046FFF76DFF2046FFF76CFF9BE7204686
:1013F000FFF766FF2046FFF765FFACE72046FFF7E3
:101400005FFF2046FFF75EFFBDE76FF001021A6144
:101410002046FEF7DDFFC1E76FF080021A6120462B
:1014200000F065F8C3E76FF040021A612046FFF74D
:101430004AFFC5E76FF020021A61204600F056F817
:10144000C7E7000003681B4A90420AD0B0F1804F02
:1014500007D0A2F59432904203D002F58062904208
:1014600003D123F070034A681343124A90420AD012
:10147000B0F1804F07D0A2F59432904203D002F52C
:101480008062904203D123F44073CA68134323F06F
:1014900080034A69134303608B68C3620B688362ED
:1014A000044B984202D00123436170470B690363E8
:1014B000F9E700BF002C0140B0B110B5044690F828
:1014C0003D3063B1022384F83D30214651F8040BCE
:1014D000FFF7B8FF012384F83D30002010BD80F8ED
:1014E0003C30FFF7DBFEEDE70120704770477047A7
:1014F0000268D36823F49073D3600268536923F0C1
:1015000001035361202380F83A30704790F8393056
:10151000DBB2212B01D0022070478368B3F5805FD6
:1015200017D0036A5A1C02621A7803685A60C38C87
:101530009BB2013B9BB2C3844BB90268D36823F0D2
:101540008003D3600268D36843F04003D360002077
:101550007047036A1B880268C3F30803536003697A
:101560001BB9036A02330362E1E7036A01330362D2
:10157000DDE7000038B504460268136923F44053E0
:10158000C1680B43136183680269134342691A43BC
:101590000168CB6823F4B05323F00C031343CB60F2
:1015A0000268536923F4407381690B4353610268F5
:1015B000214B9A421FD0FFF775FC00EB800000EB37
:1015C000800063689B00B0FBF3F01C4DA5FB00326C
:1015D0005109642303FB11031B013233A5FB0323D1
:1015E0005B0903F0F00202EB011203F00F03216824
:1015F00013448B6038BDFFF765FC00EB800000EB07
:10160000800063689B00B0FBF3F00C4DA5FB00323B
:101610005109642303FB11031B013233A5FB032390
:101620005B0903F0F00202EB011203F00F032168E3
:1016300013448B60DEE700BF003801401F85EB518B
:1016400058B310B5044690F839300BB3242384F80E
:1016500039302268D36823F40053D3602046FFF763
:1016600089FF2268136923F4904313612268536948
:1016700023F02A0353612268D36843F40053D360F4
:101680000020E063202384F8393084F83A3010BD1C
:1016900080F83830FEF784FFD8E70120704790F8D3
:1016A0003930DBB2202B16D1B9B1C2B190F8383045
:1016B000012B16D001628284C2840023C3632122DD
:1016C00080F8392080F838300168CA6842F080021A
:1016D000CA601846704702207047012070470120F9
:1016E000704702207047704708B50168CA6822F049
:1016F0004002CA60202280F83920FFF7F4FF002062
:1017000008BD704708B590F83A30DBB2222B46D1BD
:101710008368B3F5805F0FD003690BBB03685A6819
:10172000836A591C81621A70C38D9BB2013B9BB2C4
:10173000C385F3B1002008BD826A036943B9036819
:101740005B68C3F308031380836A02338362EBE7A9
:1017500003685B68DBB21380836A01338362E3E76B
:1017600003685B68826A511C816203F07F03137017
:10177000DAE70268D36823F02003D3600268D368F5
:1017800023F48073D3600268536923F0010353612B
:10179000202380F83A30FFF7B4FF0020CBE7022087
:1017A000C9E7704710B5044602681368D1685269EA
:1017B00013F00F0005D113F0200F02D011F0200F0D
:1017C00013D128B112F0010213D111F4907F10D17E
:1017D00013F0800F02D011F0800F69D113F0400F89
:1017E00002D011F0400F67D110BD2046FFF78AFFED
:1017F000FAE713F0010F06D011F4807F03D0E06BFD
:1018000040F00100E06313F0040F04D01AB1E06B64
:1018100040F00200E06313F0020F04D01AB1E06B55
:1018200040F00400E06313F0080F04D01AB1E26B3B
:1018300042F00802E263E26B002AD5D013F0200FD9
:1018400002D011F0200F21D123685B6903F040031F
:10185000E26B12F0080F00D123B32046FFF748FED9
:1018600023685A6912F0400F18D05A6922F04002DA
:101870005A61636B73B1124A5A63606BFFF76EFC77
:101880000028B1D0606B436B9847ADE72046FFF767
:1018900039FFD9E72046FFF784FFA5E72046FFF789
:1018A00080FFA1E72046FFF77CFF0023E3639BE76F
:1018B0002046FFF72BFE97E72046FFF715FF93E73B
:1018C000C518000808B5406A0023C385C384FFF724
:1018D00068FF08BD0F4B1A6842F001021A60596890
:1018E0000D4A0A405A601A6822F0847222F480324B
:1018F0001A601A6822F480221A605A6822F4FE02E2
:101900005A604FF41F029A60044B4FF000629A60D5
:10191000704700BF001002400000FFF800ED00E03B
:101920001AB9084206D11046704731EA000303D0C5
:1019300000207047012070470120704738B52020F3
:1019400001F00EFD044628B1002540F8045B00F0CC
:10195000DDF82577204638BD2DE9F047DDF820A0D9
:1019600078B10D4617469846064611F07F4911D0CA
:101970004FF0500383F31188BFF36F8FBFF34F8F86
:10198000FEE74FF0500383F31188BFF36F8FBFF36F
:101990004F8FFEE741B94FF0500383F31188BFF337
:1019A0006F8FBFF34F8FFEE701F018F958B9BAF106
:1019B000000F08D04FF0500383F31188BFF36F8FEF
:1019C000BFF34F8FFEE700F06BFE346842462946B6
:1019D0002046FFF7A5FFE0B117B124EA0503336005
:1019E00000F0F8FEB9F1000F10D038B91C4B4FF0E1
:1019F00080521A60BFF34F8FBFF36F8F01F046F92B
:101A0000044610F0007F1BD024F07F442046BDE840
:101A1000F087BAF1000F11D06FB94946B8F1000F45
:101A200001D041F0806152462943301D00F0B0FFE3
:101A30004C46D146D4E74FF08071EFE7D146CFE76F
:101A400001F098FD3468424629462046FFF768FFBA
:101A500018B117B124EA0505356001F0ADFDD3E7F3
:101A600004ED00E0F8B568B10D46044611F07F467C
:101A700011D04FF0500383F31188BFF36F8FBFF382
:101A80004F8FFEE74FF0500383F31188BFF36F8F42
:101A9000BFF34F8FFEE700F10C0700F001FE206955
:101AA00023682B4323600AE0216833EA010105D152
:101AB00011E0216841F0007100F0F8FF2846B842BB
:101AC0000ED04568026822F07F4312F0806FEBD1A0
:101AD00021681942F2D012F0807FEAD01E43E8E775
:101AE000236823EA0603236000F074FE2068F8BD33
:101AF00008B5FFF7B7FF08BD08B513460A4601460B
:101B0000014801F0E7FA08BDF11A000800F10803E6
:101B100043604FF0FF328260C360036100230360C3
:101B2000704700230361704743684B609A688A607E
:101B3000516099600861036801330360704730B4F5
:101B40000D68B5F1FF3F11D000F108031C465B683A
:101B50001A68AA42FAD963684B6099608C60616028
:101B6000086103680133036030BC70470469F2E721
:101B70000369416882688A60416851605A6882429C
:101B800006D0002202611A68013A1A60186870478C
:101B900082685A60F5E710B5044601F0EBFCA26BD1
:101BA000E36B9A4204D0002401F006FD204610BDEC
:101BB0000124F9E710B5044601F0DCFCA36B23B95E
:101BC000012401F0F9FC204610BD0024F9E770B5AE
:101BD00004461546866B026C5AB903681BB1002097
:101BE0000136A66370BD406801F008F80023636009
:101BF000F6E76DB9806801F023FE226CA3681344F8
:101C0000A3606268934219D32368A3602846E7E77C
:101C1000C06801F015FE226C5142E3689B1AE36034
:101C20002268934202D263680B44E360022D01D024
:101C30000020D5E726B1013E0020D1E72846CFE7B6
:101C40000020CDE70346026C6AB110B50846D9689A
:101C50001144D9605C68A14201D31968D960D96880
:101C600001F0EEFD10BD704738B5054601F082FC6D
:101C700095F8454064B203E000F0AAFF013C64B26D
:101C8000002C08DD6B6A33B105F1240000F0C8FEBA
:101C90000028F3D0F0E7FF2385F8453001F08CFCF5
:101CA00001F068FC95F8444064B203E000F090FF56
:101CB000013C64B2002C08DD2B6933B105F1100042
:101CC00000F0AEFE0028F3D0F0E7FF2385F84430A3
:101CD00001F072FC38BD000038B5E0B10D46044695
:101CE00001F048FC2168E26B236C03FB021060608A
:101CF0000020A063A160013A02FB0313E360FF230D
:101D000084F8443084F84530EDB9236963B901F0B3
:101D100053FC012038BD4FF0500383F31188BFF30B
:101D20006F8FBFF34F8FFEE704F1100000F078FED5
:101D30000028ECD0084B4FF080521A60BFF34F8F51
:101D4000BFF36F8FE3E704F11000FFF7DFFE04F14C
:101D50002400FFF7DBFEDAE704ED00E038B51D46AE
:101D6000049C0B4649B92460E063236401212046AA
:101D7000FFF7B2FF84F84C5038BD2260F4E740B959
:101D80004FF0500383F31188BFF36F8FBFF34F8F72
:101D9000FEE730B585B01C46054653B192B189B90E
:101DA0004FF0500383F31188BFF36F8FBFF34F8F52
:101DB000FEE74FF0500383F31188BFF36F8FBFF33B
:101DC0004F8FFEE76AB150230393039B502B13D030
:101DD0004FF0500383F31188BFF36F8FBFF34F8F22
:101DE000FEE70029EFD04FF0500383F31188BFF3D3
:101DF0006F8FBFF34F8FFEE7012384F846300094C6
:101E00009DF820302846FFF7A9FF204605B030BDD9
:101E1000F0B585B0019288B10E461D460446B1B1B9
:101E2000022D20D1E36B012B1DD04FF0500383F323
:101E30001188BFF36F8FBFF34F8FFEE74FF0500352
:101E400083F31188BFF36F8FBFF34F8FFEE7036CEF
:101E5000002BE5D04FF0500383F31188BFF36F8F51
:101E6000BFF34F8FFEE700F0B9FE074658B9019B5C
:101E7000002B44D04FF0500383F31188BFF36F8FD2
:101E8000BFF34F8FFEE7002739E02A463146204650
:101E9000FFF79DFE626A6AB938B13C4B4FF0805241
:101EA0001A60BFF34F8FBFF36F8F01F085FB0120E6
:101EB00005B0F0BD04F1240000F0B2FD0028F4D01C
:101EC000324B4FF080521A60BFF34F8FBFF36F8FCA
:101ED000EBE701F071FB0020EAE702A800F02AFE20
:101EE000012719E0002384F8443021E0002384F81E
:101EF000453023E02046FFF7B7FE00F06BFC01F011
:101F000039FBA26BE36B9A42BFD3022DBDD0019B7C
:101F1000002BDED0002FE0D001F04EFB00F0C0FB24
:101F200001F028FB94F844305BB2B3F1FF3FD9D005
:101F300094F845305BB2B3F1FF3FD7D001F03CFBE2
:101F400001A902A800F002FEC8B92046FFF723FE4F
:101F50000028CFD0019904F1100000F001FD2046C7
:101F6000FFF782FE00F036FC0028C8D1074B4FF087
:101F700080521A60BFF34F8FBFF36F8FBFE72046C9
:101F8000FFF772FE00F026FC002091E704ED00E070
:101F90002DE9F84390B1894690461F460446B1B1F9
:101FA000022F20D1E36B012B1DD04FF0500383F3A0
:101FB0001188BFF36F8FBFF34F8FFEE74FF05003D1
:101FC00083F31188BFF36F8FBFF34F8FFEE7036C6E
:101FD000002BE5D04FF0500383F31188BFF36F8FD0
:101FE000BFF34F8FFEE701F0B3FBEFF311864FF025
:101FF000500383F31188BFF36F8FBFF34F8FA26B32
:10200000E36B9A4206D3022F04D0002086F3118896
:10201000BDE8F88394F845506DB23A4649462046EB
:10202000FFF7D5FDB5F1FF3F05D06B1C5BB284F81F
:1020300045300120EAE7636A0BB90120E6E704F1C5
:10204000240000F0EDFC30B1B8F1000F05D0012004
:10205000C8F80000DAE70120D8E70120D6E7000041
:10206000F0B585B0019290B10E460446C1B100F0C2
:10207000B5FD074600BB019B002B5CD04FF0500321
:1020800083F31188BFF36F8FBFF34F8FFEE74FF0DD
:10209000500383F31188BFF36F8FBFF34F8FFEE7B9
:1020A000036C002BE3D04FF0500383F31188BFF390
:1020B0006F8FBFF34F8FFEE700273CE0314620468D
:1020C000FFF7C0FD013DA563236923B901F074FA50
:1020D000012005B0F0BD04F1100000F0A1FC0028C3
:1020E000F4D0354B4FF080521A60BFF34F8FBFF3DF
:1020F0006F8FEBE701F060FA0020EAE702A800F03A
:1021000019FD012721E0002384F8443029E0002351
:1021100084F845302BE02046FFF7A6FD00F05AFB7F
:1021200009E02046FFF7A0FD00F054FB2046FFF732
:1021300041FD00283DD101F01DFAA56B002DBDD158
:10214000019B002BD6D0002FD8D001F035FA00F03B
:10215000A7FA01F00FFA94F844305BB2B3F1FF3FF5
:10216000D1D094F845305BB2B3F1FF3FCFD001F04E
:1021700023FA01A902A800F0E9FC0028D1D12046E9
:10218000FFF718FD0028C6D0019904F1240000F0E3
:10219000E7FB2046FFF768FD00F01CFB0028CAD1D2
:1021A000054B4FF080521A60BFF34F8FBFF36F8F14
:1021B000C1E700208DE700BF04ED00E0002300E050
:1021C0000133072B0BD8064A52F83320002AF7D1E7
:1021D000034A42F8331002EBC3035860704770475C
:1021E0005C1B002070B504460D46164601F0C2F98E
:1021F00094F844305BB2B3F1FF3F0DD094F8453012
:102200005BB2B3F1FF3F0BD001F0D6F9A36B5BB12A
:102210002046FFF729FD70BD002384F84430EDE728
:10222000002384F84530EFE73246294604F12400C4
:1022300000F0DAFBECE70000084B1B681B6823B9D1
:10224000074B4FF0FF321A607047044B1B68DB6886
:10225000DB685A68024B1A60704700BF1801002003
:10226000C00500202DE9F04780460D4617469946E7
:10227000089EDDF824A00A9C9200A521206B01F0A5
:10228000EDFA236B07F18042013A03EB820727F056
:10229000070700220F2A07D8A95CA31883F8341077
:1022A000AB5C0BB10132F5E7002384F84330372EE5
:1022B00000D93726E662E66400252565201DFFF774
:1022C00030FC04F11800FFF72CFC2461C6F138063D
:1022D000A6616462656584F858504A4641463846AE
:1022E00001F01EF92060BAF1000F01D0CAF80040D9
:1022F000BDE8F08738B50024372C08D804EB8402F9
:1023000093000E481844FFF701FC0134F4E70C4D2C
:102310002846FFF7FBFB0B4C2046FFF7F7FB0A486C
:10232000FFF7F4FB0948FFF7F1FB0948FFF7EEFB65
:10233000084B1D60084B1C6038BD00BF2001002009
:1023400098050020AC050020C8050020F4050020F9
:10235000E0050020180100201C01002010B50446F3
:1023600001F008F9214A136801331360204B1B6800
:102370005BB1204B1B686BB91D4B1B68DA6AE36AC3
:102380009A4207D81A4B1C6004E0194B1C60136872
:10239000012B27D0184A1368013313606364E06A85
:1023A000164B1B68984201D9144B186000EB800053
:1023B000211D134B03EB8000FFF7B6FB01F0FCF887
:1023C0000C4B1B686BB10A4B1B68DA6AE36A9A42D2
:1023D00007D20C4B4FF080521A60BFF34F8FBFF300
:1023E0006F8F10BDFFF786FFD4E700BF8005002088
:1023F00014010020DC050020900500209405002039
:102400002001002004ED00E010B5044690F859309A
:1024100063B1012B11D0022B0ED04FF0500383F388
:102420001188BFF36F8FBFF34F8FFEE7006B01F092
:102430000FF8204601F00CF810BD01F009F8FBE799
:102440000F4B1B68D3B110B501F094F80D4BDB684E
:10245000DC68201DFFF78CFB0B4A1368013B1360FF
:10246000074A1368013B136001F0A6F82046FFF706
:10247000CBFF034B1B68002BE6D110BD704700BF9C
:1024800084050020F40500208005002008B5FFF732
:10249000D7FF064B1B68012BF9D9054B4FF0805233
:1024A0001A60BFF34F8FBFF36F8FF0E7200100205A
:1024B00004ED00E070B504460D46174B1E68174B3F
:1024C00018680430FFF754FBB4F1FF3F0DD03444DB
:1024D000124B1B685C60A64210D9114B18680F4B59
:1024E00019680431FFF72BFB70BD002DEFD00B4BAB
:1024F000196804310B48FFF717FBF5E70A4B18681A
:10250000064B19680431FFF71AFB084B1B68A342FE
:10251000EAD9064B1C60E7E70806002014010020FA
:102520001C010020E005002018010020C00500204B
:1025300070B586B00B9D0C9C75B1B4B15C26049649
:10254000049E5C2E1AD04FF0500383F31188BFF322
:102550006F8FBFF34F8FFEE74FF0500383F3118867
:10256000BFF36F8FBFF34F8FFEE74FF0500383F33E
:102570001188BFF36F8FBFF34F8FFEE725630225EE
:1025800084F8595000250395029405AD01950A9DE4
:102590000095FFF767FE2046FFF7E0FE059806B0BE
:1025A00070BD2DE9F04385B00746884614461E46A7
:1025B000900000F0D5FE00B381465C2000F0D0FE14
:1025C0000546B0B1C0F83090E5B1002385F8593028
:1025D000039302950D9B01930C9B00933346224677
:1025E00041463846FFF73EFE2846FFF7B7FE01207A
:1025F00005E0484600F02CFFE6E74FF0FF3005B05D
:10260000BDE8F0834FF0FF30F9E7000010B588B067
:1026100000240594069407AA06A905A800F02CFE3C
:10262000059B0293069B019300942346079A174942
:102630001748FFF77DFF48B100F0A0FB0346012BD0
:1026400006D0B3F1FF3F18D008B010BD0023F6E765
:102650004FF0500383F31188BFF36F8FBFF34F8F99
:102660000C4B4FF0FF321A600B4B01221A600B4BE0
:1026700000221A6001F010F8E6E74FF0500383F3F0
:102680001188BFF36F8FBFF34F8FFEE7C84100087B
:102690008D240008C0050020DC050020080600206D
:1026A000024A136801331360704700BF8C05002095
:1026B000014B1868704700BF08060020F8B53A4B78
:1026C0001B68002B65D1394B1D6801351D60C5B9EC
:1026D000374B1B681B6843B14FF0500383F31188DD
:1026E000BFF36F8FBFF34F8FFEE7314A1168314B55
:1026F000186810601960304A136801331360FFF7DF
:102700009BFD2E4B1B68AB420CD900242C4B1B6845
:10271000DB6A03EB83039A002A4B9B58012B3DD9BC
:1027200001243BE0002416E0244B4FF0FF321A60F6
:10273000ECE7224A1360E9E703EB83039A0039468A
:1027400020481044FFF7F0F9F26A1D4B1B68DB6A62
:102750009A4200D30124164B1B681B68002BE3D060
:10276000134B1B68DB68DE6873689D42E1D3371D3D
:102770003846FFF7FDF9B36A1BB106F11800FFF701
:10278000F7F9F36A104A12689342D5D90E4A1360DA
:10279000D2E70E4A13680133136000240C4B1B6808
:1027A00003B101242046F8BD8C0500200806002056
:1027B000180100201C010020C4050020C0050020D5
:1027C000140100202001002094050020880500202D
:1027D0000C06002038B5344B1B6843B94FF050034A
:1027E00083F31188BFF36F8FBFF34F8FFEE700F0C5
:1027F000C1FE2D4B1A68013A1A601B68002B4DD19F
:102800002A4B1B680BB9002449E00024284B1B68A5
:102810001BB3274BDB68DC6804F11800FFF7A8F94D
:10282000251D2846FFF7A4F9E06A224B1B68984251
:1028300001D9204B186000EB800029461E4B03EBAA
:102840008000FFF771F9E26A1C4B1B68DB6A9A4251
:10285000DCD31B4B01221A60D8E70CB1FFF7ECFC6C
:10286000184B1C6874B9164B1C68C4B1164B4FF05A
:1028700080521A60BFF34F8FBFF36F8F01240EE0B9
:10288000013C07D0FFF71AFF0028F9D00C4B0122BA
:102890001A60F5E70B4B00221A60E4E7002400F011
:1028A0008BFE204638BD00BF8C050020800500202F
:1028B000C8050020940500202001002014010020FC
:1028C0000C0600208805002004ED00E01F4B1B686B
:1028D0001BB11F4B01221A6070471D4B00221A606A
:1028E0001C4B1B6803EB83018A001B498A585AB9A9
:1028F0000BB1013BF6E74FF0500383F31188BFF3B0
:102900006F8FBFF34F8FFEE710B403EB830082009D
:102910000A4450684068506003EB8304A2001446E8
:102920000832114488420CD003EB830291000A4A1A
:102930000A445268D168094A1160064A136010BC03
:1029400070474068044A22445060EDE78C0500203F
:102950000C06002094050020200100201401002016
:1029600058B110B50C46094B19681831FFF7E7F854
:1029700001212046FFF79EFD10BD4FF0500383F369
:102980001188BFF36F8FBFF34F8FFEE71401002054
:1029900038B568B10B461446114A12688AB94FF02F
:1029A000500383F31188BFF36F8FBFF34F8FFEE7A0
:1029B0004FF0500383F31188BFF36F8FBFF34F8F36
:1029C000FEE7084A116843F000438B611168183133
:1029D000FFF7AAF801212046FFF76CFD38BD00BFC4
:1029E0008C0500201401002038B570B10C46154646
:1029F0000A4B19681831FFF797F80DB14FF0FF3403
:102A000029462046FFF756FD38BD4FF0500383F3AB
:102A10001188BFF36F8FBFF34F8FFEE714010020C3
:102A200038B5C368DC6824B304F118052846FFF7FD
:102A30009FF8184B1B682BBB251D2846FFF798F8FD
:102A4000E06A154B1B68984201D9134B186000EBE4
:102A500080002946114B03EB8000FFF765F8E26A1E
:102A60000F4B1B68DB6A9A4211D901200D4B18608D
:102A70000EE04FF0500383F31188BFF36F8FBFF365
:102A80004F8FFEE729460848FFF74EF8E7E700209A
:102A900038BD00BF8C0500209405002020010020D7
:102AA000140100200C060020C805002038B51C4A7F
:102AB000126842B94FF0500383F31188BFF36F8F50
:102AC000BFF34F8FFEE741F000430360C468F4B1E9
:102AD000FFF74EF8251D2846FFF74AF8E06A114B2C
:102AE0001B68984201D90F4B186000EB8000294603
:102AF0000D4B03EB8000FFF717F8E26A0B4B1B68E6
:102B0000DB6A9A4202D90A4B01221A6038BD4FF0A3
:102B1000500383F31188BFF36F8FBFF34F8FFEE72E
:102B20008C050020940500202001002014010020C5
:102B30000C060020034B1B680360034B1B684360BB
:102B4000704700BFC405002008060020F8B5C8B1D2
:102B50000C460546F9B100F00DFD1B4B19686B687A
:102B6000C81A2268B2F1FF3F26D02F68174E366888
:102B7000B74201D08B4224D9824215D8002323606A
:102B800001241AE04FF0500383F31188BFF36F8FD5
:102B9000BFF34F8FFEE74FF0500383F31188BFF36D
:102BA0006F8FBFF34F8FFEE75B1A134423602846F5
:102BB000FFF7C0FF002400E0002400F0FDFC2046E9
:102BC000F8BD0124F9E700BF08060020C405002075
:102BD000014B01221A6070470C060020054B1B6850
:102BE00033B1054B1B680BB10020704702207047C2
:102BF00001207047DC0500208C05002000283BD018
:102C000038B504461E4B1B68834208D04FF0500372
:102C100083F31188BFF36F8FBFF34F8FFEE7036D10
:102C200043B94FF0500383F31188BFF36F8FBFF3A5
:102C30004F8FFEE7013B0365C16AC26C91421DD014
:102C40000BB1002038BD051D2846FEF791FFE06C52
:102C5000E062C0F13803A3610A4B1B68984201D9B6
:102C6000084B186000EB80002946074B03EB8000FF
:102C7000FEF75AFF0120E5E7002070470020E1E75A
:102C8000140100209405002020010020044A13684C
:102C900098691368DB6A1268C3F13803936170475F
:102CA00014010020064B1A681368B3FA83F35B091A
:102CB000036013B9D368186870470020704700BFDD
:102CC0001006002008B54160006191420CD8D21A6C
:102CD00083699A4201D3012008BD011D094B186880
:102CE000FEF72DFF0020F7E79A4201D2994206D263
:102CF000011D054B1868FEF722FF0020ECE70120BC
:102D0000EAE700BF140600201006002030B583B0AB
:102D100000F030FC114B1B681BB100F04DFC03B000
:102D200030BD0F4D2846FEF7F1FE0E4C2046FEF753
:102D3000EDFE0D4B1D600D4B1C60002300930C4BF2
:102D40000C4A10210A20FFF71AF8044B18600028DB
:102D5000E3D00949FFF732FADFE700BF340700206C
:102D6000B8060020CC060020100600201406002023
:102D7000E406002018060020D041000810B588B0F5
:102D8000FFF7C4FF124B1B68CBB1002405940694D7
:102D900007AA06A905A800F07BFA059B0293069BEB
:102DA0000193022300932346079A0A490A48FFF732
:102DB000BFFB0A4A106010B1012008B010BD4FF0EF
:102DC000500383F31188BFF36F8FBFF34F8FFEE77C
:102DD00034070020D8410008BD3000083807002023
:102DE000C0B110B584B014461A46034616480068B0
:102DF00038B300910194029305291CDCFFF7EEFE25
:102E0000022810D000231A4669460F480068FEF7D2
:102E1000FFFF14E04FF0500383F31188BFF36F8F6F
:102E2000BFF34F8FFEE70023069A69460648006805
:102E3000FEF7EEFF03E000236946FFF7A9F804B0B0
:102E400010BD0020FBE700BF3407002070B582B042
:102E50001A4B1B681A6852B3DB681E68DC68251DB4
:102E60002846FEF785FE636A20469847E369012BF2
:102E7000EED1A36933449E4207D2636024612946A0
:102E80000E4B1868FEF75BFEE2E7002100910B464F
:102E900032462046FFF7A4FF0028D9D14FF0500357
:102EA00083F31188BFF36F8FBFF34F8FFEE7044AA0
:102EB000106802490860136002B070BD100600205F
:102EC0001406002038B50546FFF7F2FB0446074B11
:102ED0001B68834205D800232B60044B1C602046EE
:102EE00038BDFFF7B3FF01232B60F6E7E0060020B3
:102EF00070B582B005460E46144B1B68DB68DC6873
:102F0000201DFEF735FEE369012B04D0636A2046DD
:102F1000984702B070BDA1692B463246294420462D
:102F2000FFF7D0FE0028F1D0002100910B462A4681
:102F30002046FFF755FF0028E8D14FF0500383F3F8
:102F40001188BFF36F8FBFF34F8FFEE7100600208D
:102F500070B582B006460C46FFF7A2FB01A8FFF74A
:102F6000B1FF019B1BBB05460CB9B04218D22CB176
:102F7000114B1B681C68B4FA84F464092246711B67
:102F80000E4B1868FFF72EF9FFF724FC88B90C4B9D
:102F90004FF080521A60BFF34F8FBFF36F8F08E07E
:102FA000FFF718FC29463046FFF7A2FF01E0FFF7C4
:102FB00011FC02B070BD00BF1406002034070020D1
:102FC00004ED00E010B588B006E007990698059B6F
:102FD0009847049B002B0BDA002204A9364B186893
:102FE000FFF73EF8002865D0049B002BF1DAECE7F0
:102FF000069C636913B1201DFEF7BAFD03A8FFF715
:1030000061FF049B092BE7D801A252F823F000BF0F
:10301000393000083930000839300008D92F00084D
:103020007F300008A530000839300008393000082A
:10303000D92F00087F300008059BA169024619447A
:103040002046FFF73FFE0028C6D0636A2046984717
:10305000E369012BC0D1A269002100910B460598BC
:1030600002442046FFF7BCFE0028B5D14FF05003C4
:1030700083F31188BFF36F8FBFF34F8FFEE705997E
:10308000A16131B10346024601442046FFF71AFE12
:10309000A2E74FF0500383F31188BFF36F8FBFF3A4
:1030A0004F8FFEE794F82C30002B95D1204600F08E
:1030B000CFF991E708B010BD3407002000B583B008
:1030C00001A8FFF7EFFD0199FFF742FFFFF77AFF35
:1030D000F6E7000010B584B014461A466FF00103FD
:1030E000009301900291039400236946024800680E
:1030F000FEF74EFF04B010BD34070020EFF3058348
:1031000093B9EFF3108393B90C4B1868022804D0DD
:1031100080B90A4B01221A607047EFF31183002B2C
:10312000F6D06FF0050070476FF0050070476FF044
:10313000050070474FF0FF30704700BF980900202E
:1031400008B5EFF30583B3B9EFF31083B3B90E4BB2
:103150001B68022B08D0012B13D10B4B02221A60E3
:10316000FFF754FA002008BDEFF31182002AF2D0D5
:103170006FF00500F7E76FF00500F4E76FF005006A
:10318000F1E74FF0FF30EEE798090020F0B587B087
:1031900000240494EFF30584002C43D1EFF3108353
:1031A000002B3FD1334B1B68022B21D0002839D094
:1031B00000238DF8173062B31568EDB1936903B938
:1031C00018235C1E372C51D8546814F0010F4FD1CE
:1031D0005669A6B14FEA960C94682CB1D7685B2F5C
:1031E00002D9176907B106BB64B14FF0FF3416E08E
:1031F000EFF31183B3B9D9E70DF11705DEE74FF00F
:10320000800CE9E7D46894B914699CB14FF0FF349D
:1032100005E0002418234FF0800C0DF11705012C58
:103220000AD0ACB1049807B0F0BD0124F7E74FF025
:10323000FF34F4E70024F2E71469926802920194E3
:1032400000930B4662462946FFF772F90490E9E7BE
:1032500004AA019200930B461FFA8CF22946FFF74D
:10326000A0F90128DED000230493DBE70020DAE791
:103270000020D8E798090020034B0360034B0B6044
:1032800080231360704700BF3C0900203C070020EA
:10329000034B0360034B0B604FF480731360704764
:1032A0009C0D00209C090020124A12F0070F1ED02E
:1032B000D11D21F00701C1F5406313440A460E48B1
:1032C0000260002141601344083B23F007030B48D0
:1032D000036059601960991A51601360084B1960B6
:1032E000084B1960084B4FF000421A6070474FF4CA
:1032F0004063E4E7FC0D0020081A0020F80D0020D0
:10330000041A0020001A0020FC19002010B4124BEF
:103310001A461B688342FBD351685418844209D073
:1033200041684418A3420AD00360904200D0106064
:1033300010BC70474068014451601046F0E7074CEC
:103340002468A34206D05B681944416013681B6877
:103350000360EAE70460E8E7081A0020F80D00209F
:1033600070B50446FFF79CF9344B1B68A3B1344B8E
:103370001B681C424AD134B1083414F0070F02D044
:1033800024F007040834002C42D02E4B1B68A342C3
:103390004DD32D4B1D6804E0FFF786FFE7E72B4672
:1033A00015466A68A24202D22A68002AF7D1234A47
:1033B0001268AA423DD01E6808362A681A606B68F7
:1033C0001B1B102B10D9281910F0070F08D04FF035
:1033D000500383F31188BFF36F8FBFF34F8FFEE766
:1033E00043606C60FFF792FF6A6816490B689B1A8E
:1033F0000B60164909688B4201D214490B60104BCF
:103400001B6813436B6000232B6002E0002600E082
:103410000026FFF7DFF916F0070F0CD04FF050032E
:1034200083F31188BFF36F8FBFF34F8FFEE7002642
:10343000EFE70026EDE7304670BD00BFF80D002035
:10344000FC190020001A0020081A0020041A00208D
:1034500080B338B50446A0F1080550F8043C164A7C
:103460001268134208D14FF0500383F31188BFF361
:103470006F8FBFF34F8FFEE750F8081C41B14FF03C
:10348000500383F31188BFF36F8FBFF34F8FFEE7B5
:1034900023EA020340F8043CFFF702F954F8041C45
:1034A000064A13680B4413602846FFF72FFFFFF707
:1034B00091F938BD704700BFFC190020001A0020A8
:1034C00082B0002301930D4B1B68B3F1FF3F08D07E
:1034D0004FF0500383F31188BFF36F8FBFF34F8F0B
:1034E000FEE74FF0500383F31188BFF36F8FBFF3F4
:1034F0004F8F019B002BFCD002B070470C000020C6
:1035000006480068006880F3088862B661B6BFF3B9
:103510004F8FBFF36F8F00DF00BF000008ED00E0AA
:103520004FF0807340F8043C21F0010140F8081C82
:10353000034B40F80C3C40F8202C4038704700BF4B
:10354000C13400080000000000000000000000007E
:10355000074B19680868B0E8F00F80F30988BFF3DB
:103560006F8F4FF0000080F311884EF00D0E704702
:10357000140100204FF0500383F31188BFF36F8FC5
:10358000BFF34F8F0A4A136801331360012B00D039
:103590007047084B1B6813F0FF0FF9D04FF0500332
:1035A00083F31188BFF36F8FBFF34F8FFEE700BF28
:1035B0000C00002004ED00E0094B1B6843B94FF0FC
:1035C000500383F31188BFF36F8FBFF34F8FFEE774
:1035D000013B034A13600BB983F31188704700BFA6
:1035E0000C000020000000000000000000000000AF
:1035F000EFF30980BFF36F8F0D4B1A6820E9F00FCE
:1036000010602DE908404FF0500080F31188FFF75B
:103610005DF94FF0000080F31188BDE8084019689B
:103620000868B0E8F00F80F30988BFF36F8F704728
:103630001401002008B54FF0500383F31188BFF345
:103640006F8FBFF34F8FFFF739F818B1034B4FF06F
:1036500080521A60002383F3118808BD04ED00E056
:10366000084A0023136008490B60084B1B6808498F
:10367000A1FB03139B09013B06490B600723136061
:10368000704700BF10E000E018E000E008000020F4
:10369000D34D621014E000E010B582B0274B1A78C9
:1036A000D2B20192FF221A701B78DBB28DF8033080
:1036B0009DF8033003F05003214A1370214B072279
:1036C0001A609DF8033013F0800F0AD01D4A13686A
:1036D000013B13609DF803305B00DBB28DF80330D3
:1036E000EFE7184B1B68032B08D04FF0500383F310
:1036F0001188BFF36F8FBFF34F8FFEE71B0203F4F8
:10370000E063104A1360019BDBB20C4A13700E4B4E
:103710001A6842F470021A601A6842F070421A6025
:10372000FFF79EFF0024094B1C60FFF7E9FEFFF73F
:10373000CDF8FFF7C5FE204602B010BD00E400E062
:10374000101A0020141A002020ED00E00C000020C8
:10375000EFF305830F2B0FD9104A9B5CDBB2104AA5
:1037600012789A4208D94FF0500383F31188BFF3BF
:103770006F8FBFF34F8FFEE70A4B1B6803F4E063C4
:10378000094A1268934208D94FF0500383F3118815
:10379000BFF36F8FBFF34F8FFEE77047F0E300E09A
:1037A000101A00200CED00E0141A0020002103E0A4
:1037B0000B4B5B58435004310A480B4B42189A425A
:1037C000F6D30A4A02E0002342F8043B084B9A422F
:1037D000F9D3FEF77FF800F00FF8FCF7C5FD70474E
:1037E0001C4200080000002074000020740000202B
:1037F000AC1B0020FEE7000070B500260C4D0D4C00
:10380000641BA410A64209D100F084FC00260A4DD6
:103810000A4C641BA410A64205D170BD55F8043BA8
:1038200098470136EEE755F8043B98470136F2E732
:10383000144200081442000814420008184200080C
:103840000A44914200F1FF3300D1704710B511F8DE
:10385000014B914203F8014FF9D110BD03460244D8
:10386000934200D1704703F8011BF9E730B5141EED
:1038700005469BB0184605DA8B234FF0FF302B60CE
:103880001BB030BD4FF40273ADF80C300CBF2346B3
:1038900004F1FF33029305934FF6FF730246009144
:1038A0000491ADF80E3069461E9B284600F074F86E
:1038B000431CBCBF8B232B60002CE1D00022009B5B
:1038C0001A70DDE707B5009313460A460146034820
:1038D0000068FFF7CBFF03B05DF804FB1000002089
:1038E0002DE9F0478E6882469E420C4690461F4660
:1038F00038D88A8912F4906F32D02568096901336B
:10390000A5EB010965694B4405EB450505EBD5754C
:103910006D109D4238BF1D46530531D5294600F034
:1039200045FB064650B90C234FF0FF30CAF8003073
:10393000A38943F04003A381BDE8F0874A4621698B
:10394000FFF77EFFA38923F4906343F08003A381F4
:1039500026614E4426603E466561A5EB0905A560DB
:10396000BE4200D93E4632464146206800F0B8FAD1
:10397000A36822689B1B32440020A3602260DBE71F
:103980002A4600F06DFB06460028E1D15046216929
:1039900000F0C0FAC7E700002DE9F04F98468B8988
:1039A00007461B060D4614469DB00ED50B6963B93C
:1039B000402100F0FBFA2860286120B90C233B600D
:1039C0004FF0FF30D1E040236B61002309932023A7
:1039D0008DF8293030234FF00109CDF80C80DFF845
:1039E000A4818DF82A3023469A4613F8012B0AB198
:1039F000252AF9D1BAEB040B0BD05B4622462946A7
:103A00003846FFF76DFF013000F0AA80099A5A444A
:103A100009929AF80030002B00F0A28000234FF0AA
:103A2000FF32CDE905230AF1010A049307938DF8CB
:103A300053301A935446052214F8011B514800F0E4
:103A400041FA049AD8B9D00644BF20238DF85330E8
:103A5000110744BF2B238DF853309AF800302A2BDE
:103A600015D0544600204FF00A0C079A214611F851
:103A7000013B303B092B4ED9B0B1079214E0A0EBCB
:103A8000080309FA03F31343A2460493D2E7039B06
:103A9000191D1B680391002BBBBF5B4242F0020261
:103AA00007930793B8BF049223782E2B0CD1637829
:103AB0002A2B35D1039B02341A1D1B680392002B5D
:103AC000B8BF4FF0FF330593DFF8C8A0032250467C
:103AD000217800F0F7F940B14023A0EB0A0003FA87
:103AE00000F0049B01340343049314F8011B0622E5
:103AF00025488DF8281000F0E5F9002838D0234B30
:103B00001BBB039B073323F0070308330393099B75
:103B10003344099367E70C4601200CFB0232A5E70A
:103B200000234FF00A0C194601340593204610F883
:103B3000012B303A092A03D9002BC5D00591C3E7E0
:103B4000044601230CFB0121F0E703AB00932A4656
:103B500038460F4B04A9AFF30080421C0646D6D16D
:103B6000AB895B063FF52CAF09981DB0BDE8F08F1F
:103B700003AB00932A463846054B04A900F07CF8B5
:103B8000EBE700BFE0410008EA4100080000000048
:103B9000E1380008E64100082DE9F047164699464D
:103BA0008A680B6907469342B8BF1346336091F8A1
:103BB00043200C46DDF820800AB1013333602368CE
:103BC000990642BF336802333360256815F0060555
:103BD00006D104F1190AE36832689B1AAB4228DC6B
:103BE00094F84320131E226818BF012392062DD497
:103BF0004946384604F14302C047013020D02368CB
:103C0000E56803F00603042B18BF002532684FF067
:103C10000006A36808BFAD1A226908BF25EAE5754A
:103C20009342C4BF9B1AED181A34B5421AD1002032
:103C300008E00123524649463846C047013003D1C7
:103C40004FF0FF30BDE8F0870135C4E73020E118C0
:103C500081F843005A1C94F845102244023382F83C
:103C60004310C5E70123224649463846C047013084
:103C7000E6D00136D9E700002DE9FF470C46277E44
:103C80009146782F80469A460C9904F1430207D852
:103C9000622F0AD8002F00F0D980582F00F0A4809E
:103CA00004F1420684F842703AE0A7F16303152B51
:103CB000F6D801A050F823F0113D0008253D00087A
:103CC000A13C0008A13C0008A13C0008A13C000860
:103CD000253D0008A13C0008A13C0008A13C0008CB
:103CE000A13C0008333E0008553D0008153E000881
:103CF000A13C0008A13C0008553E0008A13C00087A
:103D0000553D0008A13C0008A13C00081D3E0008EC
:103D10000B6804F142061A1D1B680A6084F84230E1
:103D20000123A4E0256808682E0600F104030AD5E3
:103D300005680B60002D03DA2D236D4284F84330B3
:103D40000A235E4819E015F0400F05680B6018BFA4
:103D50002DB2EFE70B682568181D0860280601D50D
:103D60001D6802E06906FBD51D886F2F0CBF082374
:103D70000A235248002184F843106668002EA8BF29
:103D80002168A660A4BF21F0040121600DB9002EB6
:103D90004DD01646B5FBF3F103FB1157C75D06F88E
:103DA000017D2F46BB420D46F4D9082B0BD1236869
:103DB000DF0708D5236961689942DEBF302306F822
:103DC000013C06F1FF36921B22614B4621464046DC
:103DD000CDF800A003AAFFF7DFFE01304CD14FF071
:103DE000FF3004B0BDE8F087344884F845700E68B1
:103DF000236856F8045B1F060E6014D5D90744BF2C
:103E000043F0200323601DB9236823F020032360BF
:103E10001023AFE7236843F020032360782328486A
:103E200084F84530E3E75E0648BFADB2E6E71646E4
:103E3000BBE70B6826681D1D60690D6035061B68B1
:103E400001D5186002E07106FBD5188000231646E4
:103E50002361BAE70B681A1D0A601E68002130460C
:103E6000626800F02FF808B1801B6060636823610E
:103E7000002384F84330A8E7324649464046236988
:103E8000D0470130ABD023689B0713D4E068039B75
:103E90009842B8BF1846A4E7012332464946404637
:103EA000D04701309BD00135E36803995B1AAB42E0
:103EB000F2DCEBE7002504F11906F5E7F141000813
:103EC00002420008034610B5C9B2024493421846A4
:103ED00001D1002003E0047801338C42F6D110BDFB
:103EE000884210B501EB020402D98442234607D868
:103EF000431EA14208D011F8012B03F8012FF8E767
:103F0000014602448A4200D110BD13F8014D02F867
:103F1000014DF7E738B50546002943D051F8043C78
:103F20000C1F002BB8BFE41800F0D0F81E4A13682D
:103F3000104633B9636014602846BDE8384000F08D
:103F4000CBB8A3420AD921686218934201BF1A680C
:103F50005B685218226063600460EDE71A465B6894
:103F60000BB1A342FAD911685018A0420BD12068B6
:103F70000144501883421160DED118685B68014427
:103F800011605360D8E702D90C232B60D4E7206876
:103F900021188B4201BF19685B68091821606360B2
:103FA0005460C9E738BD00BF181A0020F8B5CD1C11
:103FB00025F0030508350C2D38BF0C25002D0646CD
:103FC00001DBA94203D90C2333600020F8BD00F0C7
:103FD0007DF821490A6814469CB9204F3B6823B9F3
:103FE0002146304600F062F838602946304600F03D
:103FF0005DF8431C23D10C233046336000F06CF88D
:10400000E3E723685B1B17D40B2B03D923601C4405
:10401000256004E06368A2420CBF0B605360304629
:1040200000F05AF804F10B00231D20F00700C21A1B
:10403000CCD01B1AA350C9E722466468CCE7C41C45
:1040400024F00304A042E3D0211A304600F02EF8F9
:104050000130DDD1CFE700BF181A00201C1A002064
:10406000F8B5074614460E4621B91146BDE8F8409A
:10407000FFF79CBF22B9FFF74DFF25462846F8BD44
:1040800000F030F8A0420FD221463846FFF78EFFED
:1040900005460028F2D031462246FFF7D1FB3146D3
:1040A0003846FFF737FFE9E73546E7E738B500233D
:1040B000054D044608462B6000F01EF8431C02D153
:1040C0002B6803B1236038BD9C1B0020014800F021
:1040D00011B800BFA41B0020014800F00CB800BFBD
:1040E000A41B002051F8043C181F002BBCBF0B5828
:1040F000C018704770477047044A05491368002B81
:1041000008BF0B461844106018467047201A00205C
:10411000B01B0020F8B500BFF8BC08BC9E46704735
:0C412000F8B500BFF8BC08BC9E46704714
:10412C006E6F206D6F74696F6E0000006D6F746937
:10413C006F6E206465746563746564007379737461
:10414C00656D207374617274656400006E6F726DBE
:10415C00616C3A2025642C2025642E2025730000E8
:10416C0064656661756C745461736B006C41000816
:10417C000000000000000000000000000000000033
:10418C000002000018000000000000000000000009
:10419C0002030405060708090A0B0C0D0E0F10107C
:1041AC0000000000000000000000000001020304F9
:1041BC0006070809000000000102030449444C45AD
:1041CC0000000000546D725100000000546D72200C
:1041DC0053766300232D302B2000686C4C006566F1
:1041EC00674546470030313233343536373839413C
:1041FC004243444546003031323334353637383952
:08420C00616263646566000055
:044214003501000868
:044218001101000888
:10421C0001000000100000000024F400AAAAAAAAC1
:10422C00140000200000000000000000000000004E
:10423C000000000000000000000000000000000072
:10424C000000000000000000000000000000000062
:10425C000000000000000000000000000000000052
:10426C000000000000000000000000000000000042
:10427C000000000000000000000000000000000032
:04428C00000000002E
:04000005080037AD0B
:00000001FF
